:020000040800F2
:100000000000022079180008771800087518000809
:100010007518000875180008751800080000000021
:100020000000000000000000000000007718000839
:1000300077180008000000007718000877180008FB
:10004000751800087518000875180008751800085C
:100050007518000875180008E504000875180008F0
:10006000751800087518000875180008751800083C
:10007000751800087518000875180008751800082C
:10008000751800087518000875180008751800081C
:10009000751800087518000875180008751800080C
:1000A00075180008751800087518000875180008FC
:1000B00045040008751800088D040008751800082C
:1000C00075180008751800087518000875180008DC
:1000D00075180008751800087518000875180008CC
:1000E00075180008751800087518000875180008BC
:1000F00075180008751800087518000875180008AC
:10010000751800087518000875180008751800089B
:10011000751800087518000875180008751800088B
:10012000751800087518000875180008751800087B
:10013000751800087518000875180008751800086B
:10014000751800087518000875180008751800085B
:10015000751800087518000875180008751800084B
:10016000751800087518000875180008751800083B
:10017000751800087518000875180008751800082B
:10018000751800087518000875180008751800081B
:10019000751800087518000875180008751800080B
:1001A00075180008751800087518000880B584B027
:1001B00000AF3B1D83E807007868B97AFA7A3B897B
:1001C00000F063FC79683A7B3B89084611461A4681
:1001D00000F097FC1037BD4680BD00BF80B582B0EF
:1001E00000AF786039601E2001F092FB1E480021AC
:1001F0000022002300F01BFD1B48796800F0D8FDA9
:10020000194800F04AFD1848396800F0DDFD16482D
:100210004FF4007100F0DEFC1348002100F03EFFB7
:100220001148002100F09EFF104B93E80700FFF7F4
:10023000BDFF0D48002100F0FDFE0B480021072204
:1002400000F02CFE3B685B08074800211A4601F0CD
:1002500045F80548012101F0F9F8034800F036FDA2
:100260000837BD4680BD00BF00080040401A0008A6
:1002700080B582B000AF786039601C2001F048FB87
:100280004FF0804000210022002300F0D0FC4FF00E
:100290008040796800F08CFD4FF0804000F0FDFC5C
:1002A0004FF08040396800F08FFD4FF0804008210A
:1002B00000F090FC4FF08040042100F0EFFE4FF082
:1002C0008040042100F04EFF4FF08040042100F0F8
:1002D000B1FE4FF080400421072200F0DFFD3B68B3
:1002E0005B084FF0804004211A4600F0F7FF4FF002
:1002F0008040012101F0AAF84FF0804000F0E6FCB8
:100300000837BD4680BD00BF80B500AF0120002189
:1003100001F0A6F90120034901F0E2F9012001F002
:10032000BDF980BD0000024080B500AFFFF7ECFFD3
:10033000062001F0EDFA80BD80B500AF4AF2104012
:100340004FF47A71FFF74AFF4AF210404FF47A7186
:10035000FFF78EFF80BD00BF80B584B000AF3B1DAE
:1003600083E807007868B97AFA7A3B8900F08DFB58
:1003700079683A7B3B89084611461A4600F0C1FB72
:100380001037BD4680BD00BF80B500AF0A4800F001
:100390000FFB0A481F2101F005FA0948072101F067
:1003A00001FA08484FF4A04101F0FCF90648402149
:1003B00001F0F8F980BD00BFFC1B00083038024096
:1003C00040380240443802403438024080B500AF23
:1003D0000348012100224FF4604300F056FB80BD2A
:1003E000000C024080B582B000AF0346FB71FB7980
:1003F0005B039BB20748194600F02AFBFB79DB43FD
:100400005B039BB20348194600F024FB0837BD4646
:1004100080BD00BF000C024080B500AF024B93E8E6
:100420000700FFF799FF80BD4C1A000880B500AFA8
:10043000FFF7AAFFFFF7CAFFFFF7EEFF0020FFF765
:10044000D1FF80BD80B500AF4FF08040082100F0A3
:10045000EBFB0C4B1B785A1C0B4B83FB0231D31765
:10046000C91A0B465B000B44D11ACAB2054B1A706D
:10047000044B1B781A4601239340184600F010F8ED
:1004800080BD00BF0C0000205655555580B500AF0B
:100490000248022100F0C8FB80BD00BF00080040F8
:1004A00080B582B000AF0346FB71FB795B039BB262
:1004B0000748194600F0CCFAFB79DB435B039BB29B
:1004C0000348194600F0C6FA0837BD4680BD00BF94
:1004D000000C024080B400AF00231846BD465DF812
:1004E000047B704780B500AF012001F0EDF880BDBE
:1004F00080B500AFFFF79AFFFFF71EFFFEE700BFD2
:10050000062828D8DFE800F0041D22090E13180081
:10051000114B1A6842F480121CE00F4B1A6842F427
:10052000002217E00C4B1A6842F4802212E00A4BBA
:100530001A6842F400320DE0074B1A6842F4803228
:1005400008E0054B1A6842F4800203E0024B1A6887
:1005500042F400121A6070470C380240062828D86E
:10056000DFE800F0041D22090E131800114B1A6871
:1005700042F480521CE00F4B1A6842F4006217E00C
:100580000C4B1A6842F4806212E00A4B1A6842F47B
:1005900000720DE0074B1A6842F4807208E0054BC8
:1005A0001A6842F4804203E0024B1A6842F4005297
:1005B0001A6070470C380240062828D8DFE800F09F
:1005C000041D22090E131800114B1A6822F48052E0
:1005D0001CE00F4B1A6822F4006217E00C4B1A68FB
:1005E00022F4806212E00A4B1A6822F400720DE0D5
:1005F000074B1A6822F4807208E0054B1A6822F44F
:10060000804203E0024B1A6822F400521A607047DD
:100610000C380240062828D8DFE800F0041D220923
:100620000E131800124B1868C0F300107047104BDF
:100630001868C0F3C00070470D4B1868C0F3800005
:1006400070470B4B1868C0F340007047084B1868A0
:1006500000F001007047064B1868C0F38010704727
:10066000034B1868C0F3401070470020704700BF6C
:100670000C380240024B1A6842F400021A607047BC
:100680000C380240024B1868C0F3C010704700BF1E
:100690000C380240062822D8DFE800F004171C09B5
:1006A0000E1015000F4B1868C0F3406070470D4BDB
:1006B0001868C0F3404070470A4B00E00A4B1868C6
:1006C000C0F340007047094BF9E7064B1868C0F3C8
:1006D00040707047034B1868C0F3C060704700203B
:1006E000704700BF00380240703802407438024042
:1006F00010B504462046FFF7CDFF0028FAD010BD04
:10070000032809D004280ED090B90A4B1B68C3F304
:100710008103022BF9D17047064B1B68C3F3810399
:10072000012BF9D17047034B1B6813F00C0FFAD162
:10073000704700BF08380240062822D8DFE800F0E2
:1007400004171C090E1012000E4B1A6842F080723A
:1007500016E00C4B1A6842F4803211E0094B02E0BB
:10076000094B00E0094B1A6842F0010208E0054B12
:100770001A6842F0805203E0024B1A6842F080622D
:100780001A607047003802407038024074380240E6
:10079000062822D8DFE800F004171C090E1012000A
:1007A0000E4B1A6822F0807216E00C4B1A6822F485
:1007B000803211E0094B02E0094B00E0094B1A6856
:1007C00022F0010208E0054B1A6822F0805203E093
:1007D000024B1A6822F080621A60704700380240AB
:1007E0007038024074380240024B1A6842F400220A
:1007F0001A60704700380240024B1A6822F4002247
:100800001A60704700380240032802D0052805D03E
:100810007047054B1A6842F4802203E0034B1A68C4
:1008200042F004021A6070470038024070380240FB
:10083000032802D0052805D07047054B1A6822F41A
:10084000802203E0034B1A6822F004021A6070470A
:10085000003802407038024003F007031B0702F023
:100860000F0243EA026201F0030142EA0142C0F3CF
:100870000800024B42EA80121A6070478838024032
:10088000074B1A6822F07F4222F47C02090422F40A
:10089000604241EA002022F0FF0202431A607047E2
:1008A0008C380240034B1A6822F003021043186090
:1008B000704700BF08380240034B1A6822F48002D8
:1008C00042EA80501860704704380240034B1A68AF
:1008D00022F4604242EA4030186070470838024013
:1008E000034B1A6822F4E05242EA802018607047F5
:1008F00008380240034B1A6822F0F00242EA001066
:100900001860704708380240034B1A6822F4F81246
:1009100042EA0040186070470838024010B5029C57
:1009200000F03F00C1F3080103F00F0340EA81101B
:10093000520840EA0360012C02F1FF3303F0030385
:1009400098BF022440EA034004F00704024B40EA47
:100950000470186010BD00BF0438024010B503F0E9
:100960000F03029C1B0643F4800300F03F00520873
:10097000012C43EA0003C1F3080102F1FF3202F047
:10098000030298BF022443EA811343EA024304F0BE
:100990000704024A43EA0473136010BD043802409E
:1009A000024B1868C0F38100704700BF083802404E
:1009B00037B504460420FFF7BFFE0420FFF798FE7A
:1009C0000020FFF76FFF0320FFF7B6FE0320FFF7BD
:1009D0008FFEE07B00B1012001F022F8207BFFF7C1
:1009E00089FF607BFFF77CFFA07BFFF76FFFA57996
:1009F00061882078227963790095FFF7AFFF104B6B
:100A00001A6842F080721A600020FFF771FEA06839
:100A100000F0E2FD0220FFF745FF0020FFF770FE27
:100A2000084A23691360084A63691360A269074B87
:100A300004201A6003B0BDE83040FFF7A9BE00BF34
:100A400000380240000000200400002008000020C0
:100A500081617047090481617047006908407047EF
:100A6000436921EA03020B4042EA03438361704772
:100A7000006980B270474161704741F48033C361BF
:100A8000C161C361C369C36970472DE9F04106685C
:100A9000C568002443FA04F7FF0711D567004FF03B
:100AA000030C0CFA07FC6FEA0C0C01FA07F80CEACD
:100AB00006060CEA050502FA07F746EA08063D4372
:100AC0000134102CE6D10660C560BDE8F081012933
:100AD00041680CBF1943994370B541608468002197
:100AE00043FA01F5ED0707D54D000326AE4024EA91
:100AF000060402FA05F52C4301311029F0D1846077
:100B000070BDF0B5056A446A002342FA03F6F707A0
:100B100007D59E000F27B74025EA070501FA06F61C
:100B200035430133082BF0D1002303F1080642FAC4
:100B300006F6F60707D59E000F27B74024EA0704FC
:100B400001FA06F634430133082BEED10562446204
:100B5000F0BD00001C4B984228D00DD8A3F50063CF
:100B600098421DD003F5806398421CD0B0F1804FAD
:100B700029D14FF4806024E0144B98421CD004D853
:100B8000A3F58063984214D07047114B984204D06B
:100B900003F58063984212D070474FF4906010E0E4
:100BA00040F201400DE040F202400AE040F2034012
:100BB00007E040F2044004E040F2054001E040F26A
:100BC000814000F01EBE7047000C00400014004041
:100BD00000000140C3681943C1607047C36823EA3D
:100BE0000101C160704700000269C36813400B40F7
:100BF0000BD080290BD801D020290AD1064B20F434
:100C00008060C31A58425841704718467047002008
:100C100070470120704700BF0000014003690B428C
:100C20000CBF002001207047C9430161704710B517
:100C30000468134324F45C7419430C43046010BD2E
:100C4000036823F440730360036801F440710B43AD
:100C500003607047036843F08003036070470368D4
:100C600023F0800303607047036823F06003036090
:100C7000036801F060010B4303607047036823F0D1
:100C8000100303607047036843F01003036070476C
:100C9000036843F0080303607047036823F0080308
:100CA00003607047036823F0040303607047036820
:100CB00043F0040303607047036823F002030360FA
:100CC0007047036843F0020303607047036843F012
:100CD000010303607047036823F00103036070475A
:100CE000054B20F480629A4204D1436801F4FE412E
:100CF00019434160704700BF00000140054B20F4DC
:100D000080629A4205D1436801F4FE4123EA010161
:100D10004160704700000140436843F08003436036
:100D20007047436823F0800343607047436823F0B3
:100D3000700343604368194341607047436823F080
:100D4000080343607047436843F0080343607047FB
:100D5000044B20F480629A4203D1436843F00403B9
:100D60004360704700000140044B20F480629A42C7
:100D700003D1436823F0040343607047000001403F
:100D8000044B20F480629A4203D1436843F001038C
:100D90004360704700000140044B20F480629A4297
:100DA00003D1436823F00103436070470000014012
:100DB00081627047034B20F480629A4208BF01634E
:100DC000704700BF00000140C1627047062916D875
:100DD000DFE801F0041508150D151100836943F0D3
:100DE000800302E0836943F4004383617047C36971
:100DF00043F0800302E0C36943F40043C3617047DA
:100E0000062916D8DFE801F0041508150D151100A4
:100E1000836923F0800302E0836923F40043836144
:100E20007047C36923F0800302E0C36923F40043E1
:100E3000C3617047062916D8DFE801F004150815CC
:100E40000D151100836943F0040302E0836943F444
:100E5000806383617047C36943F0040302E0C369A0
:100E600043F48063C3617047062916D8DFE801F0B8
:100E7000041508150D151100836923F0040302E021
:100E8000836923F4806383617047C36923F004039B
:100E900002E0C36923F48063C3617047062900F24E
:100EA000C880DFE811F00700C6003600C600680001
:100EB000C6009600836923F003038361836983611D
:100EC000836923F070038361072A00F2B280DFE8B0
:100ED00002F03304080C1014181C836943F010034B
:100EE00047E0836943F0200343E0836943F0300324
:100EF0003FE0836943F040033BE0836943F05003E4
:100F000037E0836943F0600333E0836943F07003A3
:100F10002FE0836923F4407383618369836183696C
:100F200023F4E0438361072A00F28380DFE802F0C4
:100F300004060A0E12161A1E83691AE0836943F426
:100F4000805316E0836943F4005312E0836943F44D
:100F500040530EE0836943F480430AE0836943F41D
:100F6000A04306E0836943F4C04302E0836943F48D
:100F7000E04383617047C36923F00303C361C3691E
:100F8000C361C36923F07003C361072A51D8DFE846
:100F900002F03204080C1014181CC36943F010034B
:100FA00046E0C36943F0200342E0C36943F03003E5
:100FB0003EE0C36943F040033AE0C36943F05003A5
:100FC00036E0C36943F0600332E0C36943F0700365
:100FD0002EE0C36923F44073C361C369C361C3696D
:100FE00023F4E043C361072A23D8DFE802F00406B4
:100FF0000A0E12161A1EC3691AE0C36943F480531D
:1010000016E0C36943F4005312E0C36943F440534C
:101010000EE0C36943F480430AE0C36943F4A0438C
:1010200006E0C36943F4C04302E0C36943F4E0430C
:10103000C3617047062916D8DFE801F004150815CA
:101040000D151100836943F0080302E0836943F43E
:10105000006383617047C36943F0080302E0C3691A
:1010600043F40063C3617047062916D8DFE801F036
:10107000041508150D151100836923F0080302E01B
:10108000836923F4006383617047C36923F0080315
:1010900002E0C36923F40063C3617047062915D8D1
:1010A000DFE801F0041408140C141000036A23F0A4
:1010B00002030AE0036A23F0200306E0036A23F434
:1010C000007302E0036A23F4005303620B4B20F425
:1010D00080629A4211D1032907D0052909D001293C
:1010E0000BD1036A23F0080306E0036A23F08003B0
:1010F00002E0036A23F400630362704700000140CA
:10110000062915D8DFE801F0041408140C141000A7
:10111000036A43F002030AE0036A43F0200306E097
:10112000036A43F4007302E0036A43F4005303626A
:101130000B4B20F480629A4211D1032907D0052974
:1011400009D001290BD1036A43F0080306E0036AC2
:1011500043F0800302E0036A43F4006303627047D4
:1011600000000140062915D8DFE801F00414081436
:101170000C141000036A43F001030AE0036A43F011
:10118000100306E0036A43F4807302E0036A43F449
:10119000805303620B4B20F480629A4211D10329E1
:1011A00007D0052909D001290BD1036A43F00403B4
:1011B00006E0036A43F0400302E0036A43F48063FD
:1011C0000362704700000140062915D8DFE801F0EE
:1011D000041408140C141000036A23F001030AE03D
:1011E000036A23F0100306E0036A23F4807302E02D
:1011F000036A23F4805303620B4B20F480629A420B
:1012000011D1032907D0052909D001290BD1036A7F
:1012100023F0040306E0036A23F0400302E0036ABC
:1012200023F480630362704700000140144B20F4F4
:1012300080629A4223D1062921D8DFE801F0040810
:101240000C1014181C00436843F4807316E04368C4
:1012500043F4007312E0436843F480630EE0436894
:1012600043F400630AE0436843F4805306E04368B4
:1012700043F4005302E0436843F480434360704703
:1012800000000140144B20F480629A4223D10629C9
:1012900021D8DFE801F004080C1014181C00436882
:1012A00023F4807316E0436823F4007312E043686C
:1012B00023F480630EE0436823F400630AE043688C
:1012C00023F4805306E0436823F4005302E04368AC
:1012D00023F48043436070470000014006290CD886
:1012E000DFE801F0040B060B080B0A0042637047AD
:1012F00082637047C263704702647047044B20F4F6
:1013000080629A4203D1436C43F4004343647047C4
:1013100000000140044B20F480629A4203D1436CE8
:1013200023F400434364704700000140044B20F461
:1013300080629A4203D1436C43F480434364704714
:1013400000000140044B20F480629A4203D1436CB8
:1013500023F480434364704700000140044B20F4B1
:1013600080629A4203D1436C43F400534364704754
:1013700000000140044B20F480629A4203D1436C88
:1013800023F400534364704700000140044B20F4F1
:1013900080629A4203D1436C43F4805343647047A4
:1013A00000000140044B20F480629A4203D1436C58
:1013B00023F480534364704700000140044B20F441
:1013C00080629A4203D1436C43F4006343647047E4
:1013D00000000140044B20F480629A4203D1436C28
:1013E00023F400634364704700000140044B20F481
:1013F00080629A4203D1436C43F480634364704734
:1014000000000140044B20F480629A4203D1436CF7
:1014100023F480634364704700000140044B20F4D0
:1014200080629A4202D1436C19434164704700BF05
:1014300000000140044B20F480629A4202D1436CC8
:1014400019434164704700BF0000014043691943DC
:1014500041617047406A704741627047032924D850
:10146000DFE801F0020A131B836923F0F0038361B4
:10147000836943EA021206E0836923F470438361BF
:10148000836943EA023282617047C36923F0F00343
:10149000C361C36943EA021206E0C36923F47043DF
:1014A000C361C36943EA0232C2617047032924D889
:1014B000DFE801F0020A131B836923F00C03836148
:1014C000836943EA820206E0836923F4406383610F
:1014D000836943EA822282617047C36923F00C0367
:1014E000C361C36943EA820206E0C36923F440632F
:1014F000C361C36943EA8222C261704701F0FD0300
:10150000012B02F0030204D1531E012B98BF82F07D
:101510000302032922D8DFE801F0020912198369C6
:1015200023F00303836183691A4306E0836923F48C
:1015300040738361836943EA022282617047C36911
:1015400023F00303C361C3691A4306E0C36923F4AC
:101550004073C361C36943EA0222C2617047036AF0
:101560008900012202FA01F10B4303627047036A0A
:101570008900012202FA01F123EA010303627047A4
:10158000836823F470638360836843EA0121816088
:101590007047836823F440538360836843EA0131D2
:1015A00081607047836811B143F4004301E023F484
:1015B000004383607047836823F007038360836878
:1015C000194381607047836823F0700383608368E8
:1015D0001943816070470000034B1A6822F007022C
:1015E00010431860704700BF003C0240064B1A6869
:1015F00042F000421A60054A43F80C2C02F188328E
:1016000043F80C2C704700BF103C02402301674593
:10161000024B1A6842F000421A607047103C0240C8
:10162000024B1A6842F040021A6070470C3C0240BC
:10163000024B1A6842F001021A6070470C3C0240EB
:10164000024B1A6822F480321A6070470C3C024048
:10165000024B1B68DB03FBD4704700BF0C3C02400D
:1016600001290BD002D302290DD070470A4B1A680A
:1016700002431A605A6822EA00000AE0064B1A6820
:1016800022EA000202E0044B1A6802431A605A6818
:1016900010435860704700BF083C0140034B1A6874
:1016A00002431A605A68104358607047003C01407A
:1016B000044B1A68C04302401A605A6810405860D0
:1016C000704700BF003C0140014B1860704700BFED
:1016D000143C0140014B1B6818407047143C01400A
:1016E000F0B50022012303FA02F404424CD0284C46
:1016F000A1422ED011D8A4F54064A14223D004D831
:10170000A4F58064A1422FD01BE0224B99421CD04B
:1017100003F5806399421AD013E01F4B99421ED003
:1017200008D8A3F50063994215D003F58063994268
:1017300013D006E0194B994213D003F58063994208
:1017400011D0002310E002230EE003230CE0042359
:101750000AE0052308E0062306E0072304E0082347
:1017600002E0092300E00A230D4C22F00306344472
:1017700002F00305AD0026680F27AB4007FA05F518
:1017800026EA05052B4323600132102AAAD1F0BDB9
:1017900000140240000C02400020024000240240DD
:1017A000083801400368194301607047036823EA61
:1017B00001010160704703681943016070470368C5
:1017C00023EA010101607047430903F1804303F5F7
:1017D0000E3300F01F001A68012101FA00F01043D7
:1017E00018607047430903F1804303F50E3300F09E
:1017F0001F001A68012101FA00F022EA00001860B7
:101800007047430903F1804303F50E3300F01F00D6
:101810001A68012101FA00F002431A601A6822EAEC
:10182000000018607047430903F1804303F50E334D
:1018300000F01F001A68012101FA00F0104318603F
:101840007047430903F1804303F50E3300F01F0096
:101850001A68012101FA00F022EA000018607047BE
:10186000034B1A6822F4C00242EA405018607047E5
:1018700008380240FEE7704700221A491A485318F8
:10188000834204D2194BD35853500432F5E7184A17
:10189000934203D200221A600433F8E7154B164C2A
:1018A0001A6842F400721A605A6F42F470025A6762
:1018B000124B9C4203D254F8043B9847F8E7104C73
:1018C000104B9C4203D254F8043B9847F8E7FEF7CC
:1018D0000FFE0D4C0D4B9C4203D254F8043B98472D
:1018E000F8E700BF000000200C000020181C0008D2
:1018F0001000002014ED00E0181C0008181C00085F
:10190000181C0008181C0008181C0008181C0008E7
:10191000054B420903EB820300F01F00012202FA8B
:1019200000F01860704700BF00E100E0054B42097D
:1019300003EB820300F01F00012202FA00F018609E
:10194000704700BF80E100E0074B420903EB8203D0
:1019500000F01F001B68012202FA00F003420CBFD6
:1019600000200120704700BF00E200E0054B420963
:1019700003EB820300F01F00012202FA00F018605E
:10198000704700BF00E200E0054B420903EB820311
:1019900000F01F00012202FA00F01860704700BF3B
:1019A00080E200E0074B420903EB820300F01F00D6
:1019B0001B68012202FA00F003420CBF0020012044
:1019C000704700BF00E100E05A2804D900F00F0082
:1019D000044BC154704700F1604000F56440017051
:1019E000704700BF14ED00E0074B420903EB820390
:1019F00000F01F001B68012202FA00F003420CBF36
:101A000000200120704700BF00E300E0EF2803D86A
:101A1000024B1A6810431860704700BF00EF00E0E7
:101A200020B9064B1A6842F4804205E0012804D12F
:101A3000024B1A6802F480421A607047007000403E
:101A4000000C0240001002000200000000000240F2
:101A5000010000000F000000100060000202000002
:101A60000306000000050401006CDC02001BB70047
:101A700000366E011000500104070000020600004D
:101A80000004000000BD010580DE800200BD0105EC
:101A90001000F0000205000003060000000504012C
:101AA000000E270780C3C90100879303100050016F
:101AB000020700000506000000050400007A030A82
:101AC00080DE800200BD01050C0060000202000003
:101AD0000306000000050401006CDC02001BB700D7
:101AE00000366E010C0050010407000002060000E1
:101AF0000004000000BD010580DE800200BD01057C
:101B00000C00F000020500000306000000050401BF
:101B1000000E270780C3C901008793030C00500102
:101B2000020700000506000000050400007A030A11
:101B300080DE800200BD0105190060000202000085
:101B40000306000000050401006CDC02001BB70066
:101B500000366E0119005001040700000206000063
:101B60000004000000BD010580DE800200BD01050B
:101B70001900F00002050000030600000005040142
:101B8000000E270780C3C901008793031900500185
:101B9000020700000506000000050400007A030AA1
:101BA00080DE800200BD0105080060000202000026
:101BB0000306000000050401006CDC02001BB700F6
:101BC00000366E0108005001040700000206000004
:101BD0000004000000BD010580DE800200BD01059B
:101BE0000800F000020500000306000000050401E3
:101BF000000E270780C3C901008793030800500126
:101C0000020700000506000000050400007A030A30
:081C100080DE800200BD010529
:0C1C18000024F4000024F4000024F40078
:04000005080018795E
:00000001FF
