:020000040800F2
:1000000000000220891100088711000885110008EE
:100010008511000885110008851100080000000006
:100020000000000000000000000000008711000830
:100030008711000800000000871100081103000864
:100040008511000885110008851100088511000838
:100050008511000885110008310600088511000887
:100060008511000885110008851100088511000818
:100070008511000885110008851100088511000808
:1000800085110008851100088511000885110008F8
:1000900085110008851100088511000885110008E8
:1000A00085110008851100088511000885110008D8
:1000B00085110008851100088511000885110008C8
:1000C00085110008851100088511000885110008B8
:1000D00085110008851100088511000885110008A8
:1000E0008511000885110008851100088511000898
:1000F0008511000885110008851100088511000888
:100100008511000885110008851100088511000877
:100110008511000885110008851100088511000867
:100120008511000885110008851100088511000857
:100130008511000885110008851100088511000847
:100140008511000885110008851100088511000837
:100150008511000885110008851100088511000827
:100160008511000885110008851100088511000817
:100170008511000885110008851100088511000807
:1001800085110008851100088511000885110008F7
:1001900085110008851100088511000885110008E7
:1001A00085110008851100088511000880B584B00C
:1001B00000AF3B1D83E807007868B97AFA7A3B897B
:1001C00000F003FD79683A7B3B89084611461A46E0
:1001D00000F037FD1037BD4680BD00BF80B500AFD1
:1001E0000A4800F085FC0A481F2100F063FF094817
:1001F000072100F05FFF08484FF4A04100F05AFFCC
:100200000648402100F056FF80BD00BFC816000818
:10021000303802404038024044380240343802400E
:1002200080B500AF0348012100224FF4704300F075
:10023000CCFC80BD000C024080B500AF024B93E8BF
:100240000700FFF7B3FF80BD4014000880B500AF82
:10025000024B93E80700FFF7A9FF80BD4C1400088C
:1002600080B500AF024B93E80700FFF79FFF80BD0A
:100270005814000880B500AF024B93E80700FFF761
:1002800095FF80BD6414000880B500AFFFF7DEFF66
:10029000FFF7E6FFFFF7EEFF80BD00BF80B500AFC0
:1002A000FFF79CFFFFF7BCFFFFF7C6FFFFF7ECFF70
:1002B00080BD00BF80B582B000AF0346FB71FB7903
:1002C0001B039BB20748194600F062FCFB79DB4335
:1002D0001B039BB20348194600F05CFC0837BD467F
:1002E00080BD00BF000C024080B500AF074B1B78FB
:1002F0000133DBB203F00F03DAB2044B1A70034B85
:100300001B781846FFF7D6FF80BD00BF0E00002007
:1003100080B400AF0D4B1B8801339AB20B4B1A808F
:100320000A4B1B88B3F5FA7F02D1084B00221A80D2
:10033000074B1B68002B04D0054B1B68013B044A8C
:100340001360BD465DF8047B704700BF0C000020C1
:100350001000002080B500AF054800F061FF0420C8
:1003600000F076FF00F0AEFF00F09CFF80BD00BF04
:100370004090020080B500AF0120054900F038FE32
:100380000120002100F0F4FD012000F00FFE80BDEF
:100390000010024080B500AFFFF780FF0020FFF79C
:1003A00089FFFFF7D7FF00F079F8FFF7E3FF06209A
:1003B00000F0AEFF00F0BAF8FCE700BF90B585B0E2
:1003C00000AF3C1D84E80700FB70FB78002B06D0D3
:1003D0007A683B891046194600F0DAFB05E07A6836
:1003E0003B891046194600F0D5FB1437BD4690BD39
:1003F00080B500AF064800F082FC064B93E807008A
:100400000123FFF7DBFF024800F074FC80BD00BF52
:10041000003001407014000880B584B000AF03467E
:100420000A46FB711346BB71084B93E80700002393
:10043000FFF7C4FF064B93E807000123FFF7BEFF59
:10044000FB89DBB218461037BD4680BD7C1400081E
:100450008814000880B582B000AF0346FB71FB79B9
:1004600063F07F03DBB218460021FFF7D5FF034698
:1004700018460837BD4680BD80B582B000AF034640
:100480000A46FB711346BB71FA79BB7910461946CF
:10049000FFF7C2FF0837BD4680BD00BF80B500AF83
:1004A000FFF7A6FF0E4B0A221A6000BF0C4B1B6819
:1004B000002BFBD124204021FFF7AEFF2520102187
:1004C000FFF7AAFF2E200021FFF7A6FF20203721EB
:1004D000FFF7A2FF2320C821FFF79EFF80BD00BFCA
:1004E0001000002080B500AF2720FFF7B3FF0346C0
:1004F00003F00803002B00D000E0F5E780BD00BF4B
:1005000080B500AF2920FFF7A5FF0346DAB2054BFF
:100510001A702B20FFF79EFF0346DAB2024B1A70C7
:1005200080BD00BF140000201500002080B500AF82
:10053000314B1B785BB2142B0CDD304B93E807007A
:100540000123FFF73BFF2E4B93E807000023FFF743
:1005500035FF1EE0284B1B785BB213F1140F0CDA49
:10056000284B93E807000023FFF728FF264B93E86A
:1005700007000123FFF722FF0BE0244B93E807005D
:100580000023FFF71BFF224B93E807000023FFF730
:1005900015FF204B1B785BB2142B0CDD1E4B93E830
:1005A00007000123FFF70AFF1C4B93E80700002315
:1005B000FFF704FF1EE0174B1B785BB213F1140F1B
:1005C0000CDA174B93E807000023FFF7F7FE154BF3
:1005D00093E807000123FFF7F1FE0BE0124B93E8CD
:1005E00007000023FFF7EAFE104B93E80700002303
:1005F000FFF7E4FE80BD00BF140000209414000843
:10060000A0140008AC140008B8140008C4140008B2
:10061000D014000815000020DC140008E8140008BD
:10062000F4140008001500080C150008181500083F
:1006300080B500AF012000F0CFFCFFF761FF80BD67
:10064000062828D8DFE800F0041D22090E13180040
:10065000114B1A6842F480121CE00F4B1A6842F4E6
:10066000002217E00C4B1A6842F4802212E00A4B79
:100670001A6842F400320DE0074B1A6842F48032E7
:1006800008E0054B1A6842F4800203E0024B1A6846
:1006900042F400121A6070470C380240062828D82D
:1006A000DFE800F0041D22090E131800114B1A6830
:1006B00042F480521CE00F4B1A6842F4006217E0CB
:1006C0000C4B1A6842F4806212E00A4B1A6842F43A
:1006D00000720DE0074B1A6842F4807208E0054B87
:1006E0001A6842F4804203E0024B1A6842F4005256
:1006F0001A6070470C380240062828D8DFE800F05E
:10070000041D22090E131800114B1A6822F480529E
:100710001CE00F4B1A6822F4006217E00C4B1A68B9
:1007200022F4806212E00A4B1A6822F400720DE093
:10073000074B1A6822F4807208E0054B1A6822F40D
:10074000804203E0024B1A6822F400521A6070479C
:100750000C380240062828D8DFE800F0041D2209E2
:100760000E131800124B1868C0F300107047104B9E
:100770001868C0F3C00070470D4B1868C0F38000C4
:1007800070470B4B1868C0F340007047084B18685F
:1007900000F001007047064B1868C0F380107047E6
:1007A000034B1868C0F3401070470020704700BF2B
:1007B0000C380240024B1A6842F400021A6070477B
:1007C0000C380240024B1868C0F3C010704700BFDD
:1007D0000C380240062822D8DFE800F004171C0974
:1007E0000E1015000F4B1868C0F3406070470D4B9A
:1007F0001868C0F3404070470A4B00E00A4B186885
:10080000C0F340007047094BF9E7064B1868C0F386
:1008100040707047034B1868C0F3C06070470020F9
:10082000704700BF00380240703802407438024000
:1008300010B504462046FFF7CDFF0028FAD010BDC2
:10084000032809D004280ED090B90A4B1B68C3F3C3
:100850008103022BF9D17047064B1B68C3F3810358
:10086000012BF9D17047034B1B6813F00C0FFAD121
:10087000704700BF08380240062822D8DFE800F0A1
:1008800004171C090E1012000E4B1A6842F08072F9
:1008900016E00C4B1A6842F4803211E0094B02E07A
:1008A000094B00E0094B1A6842F0010208E0054BD1
:1008B0001A6842F0805203E0024B1A6842F08062EC
:1008C0001A607047003802407038024074380240A5
:1008D000062822D8DFE800F004171C090E101200C9
:1008E0000E4B1A6822F0807216E00C4B1A6822F444
:1008F000803211E0094B02E0094B00E0094B1A6815
:1009000022F0010208E0054B1A6822F0805203E051
:10091000024B1A6822F080621A6070470038024069
:100920007038024074380240024B1A6842F40022C8
:100930001A60704700380240024B1A6822F4002205
:100940001A60704700380240032802D0052805D0FD
:100950007047054B1A6842F4802203E0034B1A6883
:1009600042F004021A6070470038024070380240BA
:10097000032802D0052805D07047054B1A6822F4D9
:10098000802203E0034B1A6822F004021A607047C9
:10099000003802407038024003F007031B0702F0E2
:1009A0000F0243EA026201F0030142EA0142C0F38E
:1009B0000800024B42EA80121A60704788380240F1
:1009C000074B1A6822F07F4222F47C02090422F4C9
:1009D000604241EA002022F0FF0202431A607047A1
:1009E0008C380240034B1A6822F00302104318604F
:1009F000704700BF08380240034B1A6822F4800297
:100A000042EA80501860704704380240034B1A686D
:100A100022F4604242EA40301860704708380240D1
:100A2000034B1A6822F4E05242EA802018607047B3
:100A300008380240034B1A6822F0F00242EA001024
:100A40001860704708380240034B1A6822F4F81205
:100A500042EA0040186070470838024010B5029C16
:100A600000F03F00C1F3080103F00F0340EA8110DA
:100A7000520840EA0360012C02F1FF3303F0030344
:100A800098BF022440EA034004F00704024B40EA06
:100A90000470186010BD00BF0438024010B503F0A8
:100AA0000F03029C1B0643F4800300F03F00520832
:100AB000012C43EA0003C1F3080102F1FF3202F006
:100AC000030298BF022443EA811343EA024304F07D
:100AD0000704024A43EA0473136010BD043802405D
:100AE000024B1868C0F38100704700BF083802400D
:100AF00037B504460420FFF7BFFE0420FFF798FE39
:100B00000020FFF76FFF0320FFF7B6FE0320FFF77B
:100B10008FFEE07B00B1012000F082FC207BFFF71C
:100B200089FF607BFFF77CFFA07BFFF76FFFA57954
:100B300061882078227963790095FFF7AFFF104B29
:100B40001A6842F080721A600020FFF771FEA068F8
:100B500000F0CAF90220FFF745FF0020FFF770FE02
:100B6000084A23691360084A63691360A269074B46
:100B700004201A6003B0BDE83040FFF7A9BE00BFF3
:100B8000003802400000002004000020080000207F
:100B900081617047090481617047006908407047AE
:100BA000436921EA03020B4042EA03438361704731
:100BB000006980B270474161704741F48033C3617E
:100BC000C161C361C369C36970472DE9F04106681B
:100BD000C568002443FA04F7FF0711D567004FF0FA
:100BE000030C0CFA07FC6FEA0C0C01FA07F80CEA8C
:100BF00006060CEA050502FA07F746EA08063D4331
:100C00000134102CE6D10660C560BDE8F0810129F1
:100C100041680CBF1943994370B541608468002155
:100C200043FA01F5ED0707D54D000326AE4024EA4F
:100C3000060402FA05F52C4301311029F0D1846035
:100C400070BDF0B5056A446A002342FA03F6F7075F
:100C500007D59E000F27B74025EA070501FA06F6DB
:100C600035430133082BF0D1002303F1080642FA83
:100C700006F6F60707D59E000F27B74024EA0704BB
:100C800001FA06F634430133082BEED105624462C3
:100C9000F0BD0000154B984217D008D8A3F5784353
:100CA000984215D003F58063984214D07047104BDA
:100CB000984213D003F58063984212D0A3F50053F5
:100CC000984212D140F28D400DE040F28C400AE093
:100CD00040F20E4007E040F20F4004E040F2944042
:100CE00001E040F2954000F014BA70470030014036
:100CF00000500140036843F04003036070470368FD
:100D000023F040030360704703469968C80703F166
:100D10000802FAD5D86880B211688907FCD5116835
:100D20000906FCD41A6822F040021A607047C160BC
:100D3000704783689B07FCD5C16070478368DB07F9
:100D4000FCD5C06880B27047C1608368DB07FCD502
:100D5000C06880B27047036843F400430360704783
:100D6000036823F4004303607047036843F40043BF
:100D70000360036823F4804303607047036843F40F
:100D800000430360036843F48043036070470368D3
:100D900043F4005303607047036823F40053036077
:100DA0007047036823F4805303607047036843F47B
:100DB000805303607047036823F4806303607047C7
:100DC000036843F4806303607047036823F400738F
:100DD00003607047036843F400730360436823F0C3
:100DE000040343607047036843F4807303607047F3
:100DF000036823F4807303607047036843F0800343
:100E000003607047036823F080030360704707297D
:100E100006D802684FF6C773134043EAC103036064
:100E20007047036843F0040303607047036823F0CE
:100E3000040303607047036843F0020303607047D4
:100E4000036823F0020303607047036843F0010363
:100E500003607047036823F0010303607047436831
:100E600043F0800343607047436823F0800343608E
:100E70007047436843F0400343607047436823F082
:100E8000400343607047436843F02003436070476A
:100E9000436823F0200343607047436843F0040332
:100EA00043607047436823F004034360704743681E
:100EB00043F0020343607047436823F0020343603A
:100EC0007047436843F0010343607047436823F071
:100ED000010343607047032904D8036823F0030328
:100EE0001943016070470000034B1A6822F00702A3
:100EF00010431860704700BF003C0240064B1A6860
:100F000042F000421A60054A43F80C2C02F1883284
:100F100043F80C2C704700BF103C0240230167458A
:100F2000024B1A6842F000421A607047103C0240BF
:100F3000024B1A6842F040021A6070470C3C0240B3
:100F4000024B1A6842F001021A6070470C3C0240E2
:100F5000024B1A6822F480321A6070470C3C02403F
:100F6000024B1B68DB03FBD4704700BF0C3C024004
:100F700001290BD002D302290DD070470A4B1A6801
:100F800002431A605A6822EA00000AE0064B1A6817
:100F900022EA000202E0044B1A6802431A605A680F
:100FA00010435860704700BF083C0140034B1A686B
:100FB00002431A605A68104358607047003C014071
:100FC000044B1A68C04302401A605A6810405860C7
:100FD000704700BF003C0140014B1860704700BFE4
:100FE000143C0140014B1B6818407047143C014001
:100FF000F0B50022012303FA02F404424CD0284C3D
:10100000A1422ED011D8A4F54064A14223D004D827
:10101000A4F58064A1422FD01BE0224B99421CD042
:1010200003F5806399421AD013E01F4B99421ED0FA
:1010300008D8A3F50063994215D003F5806399425F
:1010400013D006E0194B994213D003F580639942FF
:1010500011D0002310E002230EE003230CE0042350
:101060000AE0052308E0062306E0072304E008233E
:1010700002E0092300E00A230D4C22F00306344469
:1010800002F00305AD0026680F27AB4007FA05F50F
:1010900026EA05052B4323600132102AAAD1F0BDB0
:1010A00000140240000C02400020024000240240D4
:1010B000083801400368194301607047036823EA58
:1010C00001010160704703681943016070470368BC
:1010D00023EA010101607047430903F1804303F5EE
:1010E0000E3300F01F001A68012101FA00F01043CE
:1010F00018607047430903F1804303F50E3300F095
:101100001F001A68012101FA00F022EA00001860AD
:101110007047430903F1804303F50E3300F01F00CD
:101120001A68012101FA00F002431A601A6822EAE3
:10113000000018607047430903F1804303F50E3344
:1011400000F01F001A68012101FA00F01043186036
:101150007047430903F1804303F50E3300F01F008D
:101160001A68012101FA00F022EA000018607047B5
:10117000034B1A6822F4C00242EA405018607047DC
:1011800008380240FEE7704700221A491A485318EF
:10119000834204D2194BD35853500432F5E7184A0E
:1011A000934203D200221A600433F8E7154B164C21
:1011B0001A6842F400721A605A6F42F470025A6759
:1011C000124B9C4203D254F8043B9847F8E7104C6A
:1011D000104B9C4203D254F8043B9847F8E7FFF7C2
:1011E000D9F80D4C0D4B9C4203D254F8043B984760
:1011F000F8E700BF000000200C000020E416000803
:101200001800002014ED00E0E4160008E4160008C1
:10121000E4160008E4160008E4160008E4160008C6
:10122000024B20F07F401860704700BF14E000E0E0
:10123000024B186820F07F40704700BF14E000E0C8
:10124000024B186820F07F40704700BF18E000E0B4
:10125000044B1A6800F0040022F0040202431A60F2
:10126000704700BF10E000E00B4B10B5B1FBF0F48D
:101270009C420ED8094B9C4286BFE4080020042003
:10128000FFF7E6FF013C064B24F07F441C60012081
:1012900010BD002010BD00BFF7FFFF07FEFFFF00DD
:1012A00014E000E0024B1A6842F002021A60704734
:1012B00010E000E0024B1A6822F002021A60704748
:1012C00010E000E0024B1A6842F001021A60704719
:1012D00010E000E0024B1A6822F001021A60704729
:1012E00010E000E0024B1868C0F30040704700BFF8
:1012F00010E000E0014B00221A60704718E000E0A7
:10130000024B186820F07F40704700BF1CE000E0EF
:10131000054B420903EB820300F01F00012202FA91
:1013200000F01860704700BF00E100E0054B420983
:1013300003EB820300F01F00012202FA00F01860A4
:10134000704700BF80E100E0074B420903EB8203D6
:1013500000F01F001B68012202FA00F003420CBFDC
:1013600000200120704700BF00E200E0054B420969
:1013700003EB820300F01F00012202FA00F0186064
:10138000704700BF00E200E0054B420903EB820317
:1013900000F01F00012202FA00F01860704700BF41
:1013A00080E200E0074B420903EB820300F01F00DC
:1013B0001B68012202FA00F003420CBF002001204A
:1013C000704700BF00E100E05A2804D900F00F0088
:1013D000044BC154704700F1604000F56440017057
:1013E000704700BF14ED00E0074B420903EB820396
:1013F00000F01F001B68012202FA00F003420CBF3C
:1014000000200120704700BF00E300E0EF2803D870
:10141000024B1A6810431860704700BF00EF00E0ED
:1014200020B9064B1A6842F4804205E0012804D135
:10143000024B1A6802F480421A6070470070004044
:1014400000000240010000000F0000000000024008
:10145000E00002000500000000100240080001004A
:101460000E00000000100240030000000F0000000A
:1014700000100240080001000E00000000100240B1
:10148000080001000E0000000010024008000100EA
:101490000E000000000C0240004001000E000000A1
:1014A000000C0240001001000E000000000C024081
:1014B000004001000E000000000C0240001001007E
:1014C0000E000000000C0240004001000E00000071
:1014D000000C0240001001000E000000000C024051
:1014E000002001000E000000000C024000800100FE
:1014F0000E000000000C0240002001000E00000061
:10150000000C0240008001000E000000000C0240B0
:10151000002001000E000000000C024000800100CD
:101520000E00000010006000020200000306000030
:1015300000050401006CDC02001BB70000366E01E0
:101540001000500104070000020600000004000023
:1015500000BD010580DE800200BD01051000F00025
:10156000020500000306000000050401000E270725
:1015700080C3C901008793031000500102070000D7
:101580000506000000050400007A030A80DE8002E0
:1015900000BD01050C00600002020000030600000F
:1015A00000050401006CDC02001BB70000366E0170
:1015B0000C005001040700000206000000040000B7
:1015C00000BD010580DE800200BD01050C00F000B9
:1015D000020500000306000000050401000E2707B5
:1015E00080C3C901008793030C005001020700006B
:1015F0000506000000050400007A030A80DE800270
:1016000000BD010519006000020200000306000091
:1016100000050401006CDC02001BB70000366E01FF
:101620001900500104070000020600000004000039
:1016300000BD010580DE800200BD01051900F0003B
:10164000020500000306000000050401000E270744
:1016500080C3C901008793031900500102070000ED
:101660000506000000050400007A030A80DE8002FF
:1016700000BD010508006000020200000306000032
:1016800000050401006CDC02001BB70000366E018F
:1016900008005001040700000206000000040000DA
:1016A00000BD010580DE800200BD01050800F000DC
:1016B000020500000306000000050401000E2707D4
:1016C00080C3C9010087930308005001020700008E
:1016D0000506000000050400007A030A80DE80028F
:0416E00000BD010543
:0C16E4000024F4000024F4000024F400B2
:040000050800118955
:00000001FF
