:020000040800F2
:10000000000002201D1E00081B1E0008191E00080B
:10001000191E0008191E0008191E00080000000023
:100020000000000000000000000000001B1E00088F
:100030001B1E0008000000001B1E000855030008DE
:10004000191E0008191E0008191E0008191E0008B4
:10005000191E0008191E0008191E0008191E0008A4
:10006000191E0008191E0008191E0008191E000894
:10007000191E0008191E0008191E0008191E000884
:10008000191E0008191E0008191E0008191E000874
:10009000191E0008191E0008191E0008191E000864
:1000A000191E0008191E0008191E0008191E000854
:1000B000191E0008191E0008191E0008191E000844
:1000C000191E0008191E0008191E0008191E000834
:1000D000191E0008191E0008191E0008191E000824
:1000E000191E0008191E0008191E0008191E000814
:1000F000191E0008191E0008191E0008191E000804
:10010000191E0008191E0008191E0008191E0008F3
:10011000191E0008191E0008191E0008191E0008E3
:10012000191E0008191E0008191E0008191E0008D3
:10013000191E0008191E0008191E0008191E0008C3
:10014000191E0008191E0008191E0008191E0008B3
:10015000191E0008191E0008191E0008191E0008A3
:10016000191E0008191E0008191E0008191E000893
:10017000191E0008191E0008191E0008191E000883
:10018000191E0008191E0008191E0008191E000873
:10019000191E0008191E0008191E0008191E000863
:1001A000191E0008191E0008191E000880B584B029
:1001B00000AF3B1D83E8070079683A7B3B8908461E
:1001C00011461A4601F0D9FA7868B97AFA7A3B8969
:1001D00001F096FA1037BD4680BD00BF90B585B0DE
:1001E00000AF3C1D84E80700FB70FB78002B06D0B5
:1001F0007A683B891046194601F064FA05E07A688E
:100200003B891046194601F05FFA1437BD4690BD90
:1002100080B500AF0A4801F001FA0A481F2101F039
:1002200069FD0948094901F065FD09484FF4A041FD
:1002300001F060FD0748402101F05CFD80BD00BF7A
:10024000F821000830380240403802400780200082
:10025000443802403438024080B500AF03480121E1
:1002600000224FF4704301F04BFA80BD000C0240B5
:1002700080B500AF024B93E80700FFF797FF80BD02
:10028000C41F000880B500AF0C4B93E80700FFF7D0
:100290008DFF0B4B93E80700FFF788FF094A4FF4E7
:1002A000107310460121002201F04CFA064B93E82E
:1002B00007000023FFF792FF80BD00BFD01F00089A
:1002C000DC1F000800040240E81F000880B500AFF2
:1002D000094B93E80700FFF769FF084A4FF4A4535E
:1002E00010460021022201F02DFA054B93E8070089
:1002F000FFF75CFF80BD00BF0C2000080004024037
:100300001820000880B500AFFFF782FFFFF7A4FFB9
:10031000FFF7AEFFFFF7B6FFFFF7D8FF80BD00BFC6
:1003200080B582B000AF0346FB71FB791B039BB223
:100330000748194601F0C6F9FB79DB431B039BB262
:100340000348194601F0C0F90837BD4680BD00BF1B
:10035000000C024080B400AF0D4B1B8801339AB2F1
:100360000B4B1A800A4B1B88B3F5FA7F02D1084B5E
:1003700000221A80074B1B68002B04D0054B1B681A
:10038000013B044A1360BD465DF8047B704700BF23
:100390002C0000203000002080B500AF054801F09F
:1003A00089FD042001F09EFD01F0D6FD01F0C4FDA1
:1003B00080BD00BF4090020080B487B000AF78607D
:1003C00087ED000A4FF000033B617B6893F84030F3
:1003D000FB81FB897A689B0013443A681A6000230A
:1003E000FB821BE0FB8A7A6808339B00134493ED81
:1003F000007AFA89FB8A134403F007037A689B00AA
:100400001344D3ED007A67EE277A97ED047A77EEFE
:10041000277AC7ED047AFB8A0133FB82FB8A072B1C
:10042000E0D9FB890133FB81FB8903F00703FB81E2
:10043000FB89DAB27B6883F840203B6907EE903A8B
:10044000B0EE670A1C37BD465DF8047B704700BFFD
:1004500080B485B000AF78607B68002283F84020CC
:100460000023FB7309E0FB7B7A689B0013444FF089
:1004700000021A60FB7B0133FB73FB7B072BF2D975
:100480007B680E4A1A627B680D4A5A627B680D4A85
:100490009A627B680C4ADA627B680B4A1A637B6853
:1004A000084A5A637B68064A9A637B68034ADA63A0
:1004B0001437BD465DF8047B704700BF0AD7233C64
:1004C000CDCC4C3D8FC2F53D0AD7A33E80B592B04E
:1004D00000AFFFF717FF0020FFF722FFFFF75CFFD9
:1004E00000F0F2F83B1D1846FFF7B2FF424B1B68C5
:1004F00003F00203002B63D0404B1B889BB29BB2DE
:100500003F48194601F0D7FA3E4B1B6803F0010340
:10051000002B50D03C4B1B68184600F069FB02468C
:100520000B461046194632A3D3E9002300F002FA25
:1005300002460B461046194600F0E8FD0246324BD3
:100540001A60314BD3ED007AB7EE007AF4EEC77A39
:10055000F1EE10FA09DD2C4BD3ED007AB0EE007A03
:1005600077EEC77A284BC3ED007A274BD3ED007A9C
:100570003B1D1846B0EE670AFFF71EFFF0EE407A0B
:10058000224BC3ED007A214B1B68184600F030FB6C
:1005900002460B46104619464FF000021C4B00F075
:1005A0007BFB02460B461046194600F087FD0346CA
:1005B0009AB2124B1A80134B1B680133114A136015
:1005C000104B1B684BF68032934203D10220FFF799
:1005D000A7FE0AE00B4B1B680E4A934205D1094B5C
:1005E00000221A601020FFF79BFE7FE7AFF3008028
:1005F000B81E85EB51B88E3F083C00403800002003
:10060000003C0040340000203C000020400000205E
:1006100000407F400077010080B500AF022000F06D
:100620000FFF144B144A1A60022000F0DDFE022076
:1006300000F0B4FE114801F0EFF9114B114A1A60B5
:10064000104B4FF420621A600D4B0F4A1A600F4B8B
:1006500040F206221A600C4B40F206221A60094B47
:10066000084A126842F480621A60094B4AF6552221
:100670001A6080BD84380240C0430020003C004026
:10068000480100201C3C0040203C00404C01002060
:100690000C3C004090B585B000AF3C1D84E80700DD
:1006A000FB70FB78002B06D07A683B891046194610
:1006B00001F008F805E07A683B891046194601F018
:1006C00003F81437BD4690BD80B500AF1D4B93E8CD
:1006D00007000023FFF7DEFF1B4B02221A6000BF5A
:1006E000194B1B68002BFBD1184B93E80700012323
:1006F000FFF7D0FF144B01221A6000BF124B1B689A
:10070000002BFBD1124801F065F8114801F07FF889
:100710000F482A2101F0A5F80D4801F0B0F80C4867
:1007200000212A2201F05BF909482B2101F0B2F8DF
:10073000074801F067F8074800F0DCF8FFF76CFFA6
:1007400080BD00BF3C200008300000204820000889
:10075000005400400000002080B400AF00BF054BF3
:100760001B6803F00203002BF9D1BD465DF8047B42
:10077000704700BF1854004080B400AF00BF054B65
:100780001B6803F00103002BF9D0BD465DF8047B24
:10079000704700BF1454004080B400AF00BF054B49
:1007A0001B6803F00203002BF9D0BD465DF8047B03
:1007B000704700BF1454004080B400AF024B1B6868
:1007C000BD465DF8047B70471854004080B400AF0C
:1007D00000BF054B1B6803F00403002BF9D0BD4696
:1007E0005DF8047B704700BF1454004080B400AF34
:1007F00000BF054B1B6803F04003002BF9D0BD463A
:100800005DF8047B704700BF1454004080B582B08F
:1008100000AF13460246FA710A46BA717B71FFF7C0
:100820009BFF124800F0F8FFFFF7A6FF0F484A2190
:10083000002201F031F8FFF7AFFFFFF7BDFFFB79B2
:100840000A48194601F014F8FFF7C0FFBB79002BE6
:1008500006D07B790548194601F00AF8FFF7B6FF84
:10086000024800F0DEFF0837BD4680BD005400405E
:1008700080B582B000AF02460B46FA71BB71FA79BF
:10088000BB79104601211A46FFF7C0FF0837BD4665
:1008900080BD00BF80B584B000AF0346FB71FB791B
:1008A000184600210022FFF7B1FFFFF755FF10485F
:1008B00000F0B2FFFFF760FF0D484A21012200F06F
:1008C000EBFFFFF769FF0A4800F0FCFFFFF774FF3A
:1008D000FFF78CFF064800F0E4FF0346FB73044873
:1008E00000F09FFFFB7B5BB218461037BD4680BD12
:1008F0000054004080B582B000AF78600AE07B68A9
:100900001A787B685B7810461946FFF7B1FF7B6861
:1009100002337B607B68002B03D07B681B78FF2B46
:10092000EDD10837BD4680BD81F0004102E000BF37
:1009300083F0004330B54FEA41044FEA430594EA9F
:10094000050F08BF90EA020F1FBF54EA000C55EADA
:10095000020C7FEA645C7FEA655C00F0E2804FEAAB
:100960005454D4EB5555B8BF6D420CDD2C4480EA8D
:10097000020281EA030382EA000083EA010180EABD
:10098000020281EA0303362D88BF30BD11F0004F0B
:100990004FEA01314FF4801C4CEA113102D0404241
:1009A00061EB410113F0004F4FEA03334CEA13337C
:1009B00002D0524263EB430394EA050F00F0A78094
:1009C000A4F10104D5F1200E0DDB02FA0EFC22FA8F
:1009D00005F2801841F1000103FA0EF2801843FA83
:1009E00005F359410EE0A5F120050EF1200E012A74
:1009F00003FA0EFC28BF4CF0020C43FA05F3C018B2
:100A000051EBE37101F0004507D54FF0000EDCF12A
:100A1000000C7EEB00006EEB0101B1F5801F1BD3D3
:100A2000B1F5001F0CD349085FEA30004FEA3C0CD7
:100A300004F101044FEA445212F5800F80F09A80CD
:100A4000BCF1004F08BF5FEA500C50F1000041EBD1
:100A5000045141EA050130BD5FEA4C0C404141EBD5
:100A6000010111F4801FA4F10104E9D191F0000FFC
:100A700004BF01460020B1FA81F308BF2033A3F17F
:100A80000B03B3F120020CDA0C3208DD02F1140C76
:100A9000C2F10C0201FA0CF021FA02F10CE002F1B1
:100AA0001402D8BFC2F1200C01FA02F120FA0CFCAA
:100AB000DCBF41EA0C019040E41AA2BF01EB0451F3
:100AC000294330BD6FEA04041F3C1CDA0C340EDCF1
:100AD00004F11404C4F1200220FA04F001FA02F334
:100AE00040EA030021FA04F345EA030130BDC4F1F2
:100AF0000C04C4F1200220FA02F001FA04F340EAE7
:100B00000300294630BD21FA04F0294630BD94F097
:100B1000000F83F4801306BF81F480110134013D7E
:100B20004EE77FEA645C18BF7FEA655C29D094EAEF
:100B3000050F08BF90EA020F05D054EA000C04BF6D
:100B40001946104630BD91EA030F1EBF0021002058
:100B500030BD5FEA545C05D14000494128BF41F0F7
:100B6000004130BD14F580043CBF01F5801130BD5B
:100B700001F0004545F0FE4141F470014FF00000E6
:100B800030BD7FEA645C1ABF194610467FEA655C97
:100B90001CBF0B46024650EA013406BF52EA033539
:100BA00091EA030F41F4002130BD00BF90F0000F27
:100BB00004BF0021704730B54FF4806404F1320463
:100BC0004FF000054FF0000150E700BF90F0000F1C
:100BD00004BF0021704730B54FF4806404F1320443
:100BE00010F0004548BF40424FF000013EE700BF13
:100BF00042004FEAE2014FEA31014FEA02701FBFA3
:100C000012F07F4393F07F4F81F06051704792F074
:100C1000000F14BF93F07F4F704730B54FF46074EE
:100C200001F0004521F0004120E700BF50EA010239
:100C300008BF704730B54FF000050AE050EA0102E6
:100C400008BF704730B511F0004502D5404261EB56
:100C500041014FF4806404F132045FEA915C3FF497
:100C6000DCAE4FF003025FEADC0C18BF03325FEA30
:100C7000DC0C18BF033202EBDC02C2F1200300FAE5
:100C800003FC20FA02F001FA03FE40EA0E0021FA0A
:100C900002F11444C1E600BF70B54FF0FF0C4CF4F4
:100CA000E06C1CEA11541DBF1CEA135594EA0C0FAA
:100CB00095EA0C0F00F0DEF82C4481EA030621EAE5
:100CC0004C5123EA4C5350EA013518BF52EA033520
:100CD00041F4801143F4801338D0A0FB02CE4FF0D2
:100CE0000005E1FB02E506F00042E0FB03E54FF002
:100CF0000006E1FB03569CF0000F18BF4EF0010EFA
:100D0000A4F1FF04B6F5007F64F5407404D25FEAF5
:100D10004E0E6D4146EB060642EAC62141EA5551A8
:100D20004FEAC52040EA5E504FEACE2EB4F1FD0CEA
:100D300088BFBCF5E06F1ED8BEF1004F08BF5FEA68
:100D4000500E50F1000041EB045170BD06F000461A
:100D500046EA010140EA020081EA0301B4EB5C04C7
:100D6000C2BFD4EB0C0541EA045170BD41F48011BF
:100D70004FF0000E013C00F3AB8014F1360FDEBFE4
:100D8000002001F0004170BDC4F10004203C35DAC0
:100D90000C341BDC04F11404C4F1200500FA05F343
:100DA00020FA04F001FA05F240EA020001F00042E4
:100DB00021F0004110EBD37021FA04F642EB06015A
:100DC0005EEA430E08BF20EAD37070BDC4F10C0484
:100DD000C4F1200500FA04F320FA05F001FA04F248
:100DE00040EA020001F0004110EBD37041F1000134
:100DF0005EEA430E08BF20EAD37070BDC4F120053F
:100E000000FA05F24EEA020E20FA04F301FA05F2A6
:100E100043EA020321FA04F001F0004121FA04F24E
:100E200020EA020000EBD3705EEA430E08BF20EA1E
:100E3000D37070BD94F0000F0FD101F00046400058
:100E400041EB010111F4801F08BF013CF7D041EADA
:100E5000060195F0000F18BF704703F000465200DE
:100E600043EB030313F4801F08BF013DF7D043EAAF
:100E70000603704794EA0C0F0CEA135518BF95EA65
:100E80000C0F0CD050EA410618BF52EA4306D1D1EC
:100E900081EA030101F000414FF0000070BD50EA0B
:100EA000410606BF1046194652EA430619D094EA95
:100EB0000C0F02D150EA013613D195EA0C0F05D17F
:100EC00052EA03361CBF104619460AD181EA0301D3
:100ED00001F0004141F0FE4141F470014FF000008B
:100EE00070BD41F0FE4141F4780170BD70B54FF026
:100EF000FF0C4CF4E06C1CEA11541DBF1CEA1355A6
:100F000094EA0C0F95EA0C0F00F0A7F8A4EB050487
:100F100081EA030E52EA03354FEA013100F088807E
:100F20004FEA03334FF0805545EA131343EA126347
:100F30004FEA022245EA111545EA10654FEA0026FC
:100F40000EF000419D4208BF964244F1FD0404F5B5
:100F5000407402D25B084FEA3202B61A65EB030511
:100F60005B084FEA32024FF480104FF4002CB6EBCE
:100F7000020E75EB030E22BFB61A754640EA0C004E
:100F80005B084FEA3202B6EB020E75EB030E22BF8E
:100F9000B61A754640EA5C005B084FEA3202B6EBCF
:100FA000020E75EB030E22BFB61A754640EA9C008E
:100FB0005B084FEA3202B6EB020E75EB030E22BF5E
:100FC000B61A754640EADC0055EA060E18D04FEA1C
:100FD000051545EA16754FEA06164FEAC30343EABC
:100FE00052734FEAC2025FEA1C1CC0D111F4801F89
:100FF0000BD141EA00014FF000004FF0004CB6E782
:1010000011F4801F04BF01430020B4F1FD0C88BF20
:10101000BCF5E06F3FF6AFAEB5EB030C04BFB6EB2B
:10102000020C5FEA500C50F1000041EB045170BD1E
:101030000EF0004E4EEA113114EB5C04C2BFD4EB4B
:101040000C0541EA045170BD41F480114FF0000ECF
:10105000013C90E645EA060E8DE60CEA135594EA4B
:101060000C0F08BF95EA0C0F3FF43BAF94EA0C0F4E
:101070000AD150EA01347FF434AF95EA0C0F7FF4C3
:1010800025AF104619462CE795EA0C0F06D152EA17
:1010900003353FF4FDAE1046194622E750EA4106FB
:1010A00018BF52EA43067FF4C5AE50EA41047FF40C
:1010B0000DAF52EA43057FF4EBAE12E74FEA41026F
:1010C00012F5001215D211D56FF47873B3EB62529A
:1010D00012D94FEAC12343F0004343EA505311F0C1
:1010E000004F23FA02F018BF404270474FF0000053
:1010F000704750EA013005D111F0004008BF6FF091
:10110000004070474FF00000704700BF4FEA4102B7
:10111000B2F1E04324BFB3F5001CDCF1FE5C0DD955
:1011200001F0004C4FEAC0024CEA5070B2F1004F9F
:1011300040EB830008BF20F00100704711F0804FA2
:1011400021D113F13872BCBF01F00040704741F467
:1011500080114FEA5252C2F11802C2F1200C10FA6B
:101160000CF320FA02F018BF40F001004FEAC1234F
:101170004FEAD32303FA0CFC40EA0C0023FA02F3F3
:101180004FEA4303CCE77FEA625307D150EA0133C9
:101190001EBF4FF0FE4040F44000704701F0004099
:1011A00040F0FE4040F40000704700BF062828D8F9
:1011B000DFE800F0041D22090E131800114A13681D
:1011C00043F480131CE00F4A136843F4002317E034
:1011D0000C4A136843F4802312E00A4A136843F46C
:1011E00000330DE0074A136843F4803308E0054AF2
:1011F000136843F4800303E0024A136843F40013C6
:10120000136070470C380240062828D8DFE800F049
:10121000041D22090E131800114A136843F4805369
:101220001CE00F4A136843F4006317E00C4A13688C
:1012300043F4806312E00A4A136843F400730DE03C
:10124000074A136843F4807308E0054A136843F4BF
:10125000804303E0024A136843F40053136070476D
:101260000C380240062828D8DFE800F0041D2209C7
:101270000E131800114A136823F480531CE00F4A20
:10128000136823F4006317E00C4A136823F48063A7
:1012900012E00A4A136823F400730DE0074A13684A
:1012A00023F4807308E0054A136823F4804303E0C5
:1012B000024A136823F40053136070470C3802404D
:1012C000062828D8DFE800F0041D22090E131800B4
:1012D000124B1868C0F300107047104B1868C0F329
:1012E000C00070470D4B1868C0F3800070470B4B6F
:1012F0001868C0F340007047084B186800F0010000
:101300007047064B1868C0F380107047034B18688D
:10131000C0F3401070470020704700BF0C380240F7
:10132000024A136843F40003136070470C3802400C
:10133000024B1868C0F3C010704700BF0C38024061
:10134000062822D8DFE800F004171C090E1015004B
:101350000F4B1868C0F3406070470D4B1868C0F31E
:10136000404070470A4B00E00A4B1868C0F3400049
:101370007047094BF9E7064B1868C0F34070704797
:10138000034B1868C0F3C06070470020704700BF6F
:1013900000380240703802407438024008B50246F6
:1013A0001046FFF7CDFF0028FAD008BD032801D171
:1013B0000C4A0BE0042801D10A4A0DE080B9094A21
:1013C0001368C3F38103022BFAD170471368C3F388
:1013D0008103012BFAD17047136813F00C0FFBD176
:1013E000704700BF08380240062822D8DFE800F026
:1013F00004171C090E1012000E4A136843F0807384
:1014000016E00C4A136843F4803311E0094A02E005
:10141000094A00E0094A136843F0010308E0054A5D
:10142000136843F0805303E0024A136843F080637B
:101430001360704700380240703802407438024030
:10144000062822D8DFE800F004171C090E1012004D
:101450000E4A136823F0807316E00C4A136823F4D5
:10146000803311E0094A02E0094A00E0094A1368A2
:1014700023F0010308E0054A136823F0805303E0DA
:10148000024A136823F080631360704700380240FB
:101490007038024074380240024A136843F4002353
:1014A0001360704700380240024A136823F4002397
:1014B000136070470038024012061B0710B503F096
:1014C000E04302F0706409041C4301F440312143FD
:1014D00047F6C07404EA8010014B0843186010BD41
:1014E00088380240074A136823F07F4323F47C03C3
:1014F000090423F4604341EA002023F0FF0303437F
:10150000136070478C380240034A136823F00303CA
:1015100018431060704700BF08380240034A136840
:1015200023F4800343EA805010607047043802407F
:10153000034A136823F4604343EA40301060704765
:1015400008380240034A136823F4E05343EA80203A
:101550001060704708380240034A136823F0F00314
:1015600043EA00101060704708380240034A1368CD
:1015700023F4F81343EA0040106070470838024033
:1015800030B5039C890147F6C0755208012C05EA65
:10159000010500F03F004FEA036302F1FF3298BFFC
:1015A0000224284303F070631204034302F4403220
:1015B0002407134304F0E0441C43014B1C6030BD7E
:1015C0000438024030B5039C1B0603F070635208D8
:1015D000012C43F4800300F03F004FEA811147F6ED
:1015E000C07502F1FF3240EA030098BF02240D40AB
:1015F0001204284302F440322407104304F0E0446C
:10160000014B04431C6030BD04380240024B186893
:10161000C0F38100704700BF0838024037B5044668
:101620000420FFF7E1FE0420FFF7B8FE0020FFF7DB
:101630006BFF0320FFF7D8FE0320FFF7AFFEE07B30
:1016400000B1012000F0AEFC207BFFF785FF607B3E
:10165000FFF778FFA07BFFF76BFFA57961886379BF
:10166000227920780095FFF7ADFF114A136843F007
:10167000807313600020FFF791FEA06800F0F6FA77
:101680000220FFF741FF0B4A1368C3F38103022BCB
:10169000FAD1094B22691A60084B62691A60A26983
:1016A000074B04201A6003B0BDE83040FFF7C8BE06
:1016B00000380240083802402000002024000020AA
:1016C000280000208161704709048161704700692A
:1016D00008407047436903EA010221EA030141EA35
:1016E000024181617047006980B270474161704773
:1016F00041F48033C361C161C361C369C369704789
:101700002DE9F0410568C46800264FF0030C43FA48
:1017100006F7FF070FD577000CFA07FE6FEA0E0EEB
:1017200001FA07F80EEA05050EEA040402FA07F7C3
:1017300048EA05053C430136102EE8D10560C46037
:10174000BDE8F081012941680CBF19439943F0B508
:10175000416081680024032643FA04F5ED0707D5AC
:10176000650006FA05F721EA070102FA05F52943A3
:101770000134102CF0D18160F0BDF0B5076A466AE3
:1017800000234FF00F0E42FA03F4E50707D59D0042
:101790000EFA05F427EA040701FA05F52F43013391
:1017A000082BF0D100234FF00F0E03F1080442FA8A
:1017B00004F4E40707D59C000EFA04F526EA0506B2
:1017C00001FA04F426430133082BEED10762466286
:1017D000F0BD00000A4B98420AD003F5806398429E
:1017E00009D0A3F50063984209D140F2154004E006
:1017F00040F2164001E040F2174000F0AABA7047EC
:1018000000580040036843F0010303607047036819
:1018100023F0010303607047036843F4807303609F
:101820007047036843F4007303607047036823F450
:10183000007303607047490041F480418160704744
:1018400041F40041816070474900C1607047C3683E
:1018500043F00103C3607047C36823F00103C36012
:101860007047436823F03F039BB2194341607047C0
:1018700001617047C36943F40043C3617047C369A2
:1018800023F40043C3617047C36903F470431943F1
:10189000C16170470162704742EA4102D2B20261FF
:1018A00070470069C0B27047436819434160704790
:1018B000436823EA010141607047036843F4806391
:1018C00003607047036823F4806303607047036814
:1018D00043F4006303607047036823F4006303600C
:1018E0007047C36911B923F4804301E043F4804396
:1018F000C3617047436843F40063436070474368C3
:1019000023F4006343607047436843F480534360AB
:101910007047436823F48053436070472DE9F041DA
:10192000069E079D04461F4643B9002D52D020460F
:10193000FFF772FF2046FFF7C0FF27E0A369980773
:1019400004F11808FAD42046FFF766FF6369D8F857
:1019500000E003F0010313EA0E0F04F11400F5D0C8
:101960004B0003F0FE0304F1100E236103689B0794
:10197000FCD5D8F800301744BA42D6D012F8013B53
:10198000CEF8003003685B07FCD5F5E76069A36912
:101990000340D80704F1140704F11802F6D54900F2
:1019A00041F00101C9B204F1100821613B689907B7
:1019B000FCD51368691E00228A4202D12046FFF737
:1019C00081FF3B685B06FCD5D8F80030B354013288
:1019D0009542F1D12046BDE8F041FFF722BF38B56E
:1019E0000D46D1B20446FFF73CFF012D07D1FFF7AA
:1019F00041FF062102EB8203B3FBF1F104E0FFF7A4
:101A00003EFF92B202EB820189B22046FFF73CFF13
:101A1000013292B2226238BD154B984217D008D8D5
:101A2000A3F57843984215D003F58063984214D00B
:101A30007047104B984213D003F58063984212D040
:101A4000A3F50053984212D140F28D400DE040F2D0
:101A50008C400AE040F20E4007E040F20F4004E004
:101A600040F2944001E040F2954000F072B97047B6
:101A70000030014000500140036843F04003036020
:101A80007047036823F0400303607047034699687A
:101A9000C80703F10802FAD5D86880B2116889072F
:101AA000FCD511680906FCD41A6822F040021A60BD
:101AB0007047C160704783689B07FCD5C160704761
:101AC0008368DB07FCD5C06880B27047C16083685B
:101AD000DB07FCD5C06880B27047036843F400435D
:101AE00003607047036823F4004303607047036892
:101AF00043F400430360036823F4804303607047AA
:101B0000036843F400430360036843F480430360C5
:101B10007047036843F4005303607047036823F47D
:101B2000005303607047036823F4805303607047D9
:101B3000036843F4805303607047036823F48063B1
:101B400003607047036843F4806303607047036871
:101B500023F4007303607047036843F40073036069
:101B6000436823F0040343607047036843F48073C1
:101B700003607047036823F4807303607047036851
:101B800043F0800303607047036823F08003036021
:101B90007047072906D802684FF6C773134043EA17
:101BA000C10303607047036843F004030360704798
:101BB000036823F0040303607047036843F00203E3
:101BC00003607047036823F00203036070470368F3
:101BD00043F0010303607047036823F001030360CF
:101BE0007047436843F0800343607047436823F0C5
:101BF000800343607047436843F04003436070478D
:101C0000436823F0400343607047436843F0200378
:101C100043607047436823F0200343607047436884
:101C200043F0040343607047436823F004034360B8
:101C30007047436843F0020343607047436823F0F2
:101C4000020343607047436843F0010343607047F9
:101C5000436823F001034360704703299FBF036873
:101C600023F003031943016070470000034A13681F
:101C700023F0070318431060704700BF003C024088
:101C8000054A136843F000431360044B044A1A608A
:101C900002F188321A607047103C0240043C024056
:101CA00023016745024A136843F0004313607047FD
:101CB000103C0240024A136843F04003136070472F
:101CC0000C3C0240024A136843F001031360704762
:101CD0000C3C0240024A136823F4803313607047BF
:101CE0000C3C0240024A1368DB03FCD4704700BF7F
:101CF0000C3C02400368194301607047036823EA03
:101D0000010101607047036819430160704703686F
:101D100023EA010101607047430903F1804303F5A1
:101D20000E3300F01F001A68012101FA00F0104381
:101D300018607047430903F1804303F50E3300F048
:101D40001F001A68012101FA00F022EA0000186061
:101D50007047430903F1804303F50E3301221968EC
:101D600000F01F0002FA00F040EA01021A601A684F
:101D700022EA000018607047430903F1804303F52D
:101D80000E3300F01F001A68012101FA00F0104321
:101D900018607047430903F1804303F50E3300F0E8
:101DA0001F001A68012101FA00F022EA0000186001
:101DB00070470000034A136823F4C00343EA40500D
:101DC0001060704708380240032802D0052805D06B
:101DD0007047054A136843F4802303E0034A1368FD
:101DE00043F004031360704700380240703802402B
:101DF000032802D0052805D07047054A136823F44C
:101E0000802303E0034A136823F004031360704740
:101E10000038024070380240FEE770471A4C1B49F8
:101E20001B4800225318834203D2135953500432E3
:101E3000F8E7184A0021934202D219600433FAE706
:101E4000154A164C1368164D43F400731360536F14
:101E500043F470035367AC4203D254F8043B9847F1
:101E6000F9E7104C104DAC4203D254F8043B9847AC
:101E7000F9E7FEF72BFB0D4C0D4DAC4203D254F8A5
:101E8000043B9847F9E700BF142200080000002037
:101E90002C0000205001002014ED00E01422000866
:101EA000142200081422000814220008142200083A
:101EB00014220008024B20F07F401860704700BFDA
:101EC00014E000E0024B186820F07F40704700BF2C
:101ED00014E000E0024B186820F07F40704700BF1C
:101EE00018E000E0044A136800F0040023F0040343
:101EF00018431060704700BF10E000E008B5B1FB68
:101F0000F0F10A4B99420ED8094B99428ABF002042
:101F10000420C908FFF7E6FF064B013921F07F4195
:101F20001960012008BD002008BD00BFF7FFFF07B2
:101F3000FEFFFF0014E000E0024A136843F00203D2
:101F40001360704710E000E0024A136823F00203B8
:101F50001360704710E000E0024A136843F0010389
:101F60001360704710E000E0024A136823F0010399
:101F70001360704710E000E0024B1868C0F30040A7
:101F8000704700BF10E000E0014B00221A6070476C
:101F900018E000E0024B186820F07F40704700BF57
:101FA0001CE000E020B9064A136843F4804305E0D2
:101FB000012804D1024A136803F480431360704778
:101FC0000070004000000240010000000F0000000F
:101FD000000C0240100001000E000000000402404E
:101FE0004002020104000000000C02401000010049
:101FF0000E00000000040240400202010400000044
:1020000000040240400202010400000000080240F7
:1020100080140200060000000000024010000200D0
:1020200006000000000802408014020006000000C4
:10203000000402404002020104000000000C0240C3
:10204000100001000E000000000C02401000010012
:102050000E000000100060000202000003060000F5
:1020600000050401006CDC02001BB70000366E01A5
:1020700010005001040700000206000000040000E8
:1020800000BD010580DE800200BD01051000F000EA
:10209000020500000306000000050401000E2707EA
:1020A00080C3C9010087930310005001020700009C
:1020B0000506000000050400007A030A80DE8002A5
:1020C00000BD01050C0060000202000003060000D4
:1020D00000050401006CDC02001BB70000366E0135
:1020E0000C0050010407000002060000000400007C
:1020F00000BD010580DE800200BD01050C00F0007E
:10210000020500000306000000050401000E270779
:1021100080C3C901008793030C005001020700002F
:102120000506000000050400007A030A80DE800234
:1021300000BD010519006000020200000306000056
:1021400000050401006CDC02001BB70000366E01C4
:1021500019005001040700000206000000040000FE
:1021600000BD010580DE800200BD01051900F00000
:10217000020500000306000000050401000E270709
:1021800080C3C901008793031900500102070000B2
:102190000506000000050400007A030A80DE8002C4
:1021A00000BD0105080060000202000003060000F7
:1021B00000050401006CDC02001BB70000366E0154
:1021C000080050010407000002060000000400009F
:1021D00000BD010580DE800200BD01050800F000A1
:1021E000020500000306000000050401000E270799
:1021F00080C3C90100879303080050010207000053
:102200000506000000050400007A030A80DE800253
:0422100000BD010507
:102214000000478032803200000004AF0D70058159
:1022240006070A0027001A0A1B0A1F0F029EFF0056
:0C2234000024F4000024F4000024F40056
:0400000508001E1DB4
:00000001FF
