:020000040800F2
:10000000000002200519000801190008FF18000867
:10001000FF180008FF180008FF1800080000000083
:1000200000000000000000000000000001190008AE
:100030000119000800000000011900086903000808
:10004000FF180008FF180008FF180008FF18000834
:10005000FF180008FF180008C1030008FF18000877
:10006000FF180008FF180008FF180008FF18000814
:10007000FF180008FF180008FF180008FF18000804
:10008000FF180008FF180008FF180008FF180008F4
:10009000FF180008FF180008FF180008FF180008E4
:1000A000FF180008FF180008FF180008FF180008D4
:1000B000FF180008FF180008FF180008FF180008C4
:1000C000FF180008FF180008FF180008FF180008B4
:1000D000FF180008FF180008FF180008FF180008A4
:1000E000FF180008FF180008FF180008FF18000894
:1000F000FF180008FF180008FF180008FF18000884
:10010000FF180008FF180008FF180008FF18000873
:10011000FF180008FF180008FF180008FF18000863
:10012000FF180008FF180008FF180008FF18000853
:10013000FF180008FF180008FF180008FF18000843
:10014000FF180008FF180008FF180008FF18000833
:10015000FF180008FF180008FF180008FF18000823
:10016000FF180008FF180008FF180008FF18000813
:10017000FF180008FF180008FF180008FF18000803
:10018000FF180008FF180008FF180008FF180008F3
:10019000FF180008FF180008FF180008FF180008E3
:1001A000FF180008FF180008FF18000880B584B089
:1001B00000AF3B1D83E807007B68397B3A8918460E
:1001C00000F08DFF7868B97AFA7A3B8900F04BFF2E
:1001D00000BF1037BD4680BD80B500AF0A4800F0B3
:1001E000D5FE1F21094801F041F90321084801F01B
:1001F0003DF94FF4A041074801F038F94021064885
:1002000001F034F900BF80BD2028000830380240DA
:1002100040380240443802403438024080B500AFD4
:100220004FF4604300220121024800F01CFF00BF90
:1002300080BD00BF000C024080B500AF034B93E8C7
:100240000700FFF7B3FF00BF80BD00BF1C230008FD
:1002500080B500AF034B93E80700FFF7A7FF00BF8F
:1002600080BD00BF2823000880B500AF034B93E892
:100270000700FFF79BFF00BF80BD00BF34230008CD
:1002800080B500AF034B93E80700FFF78FFF00BF77
:1002900080BD00BF4023000880B500AF034B93E84A
:1002A0000700FFF783FF00BF80BD00BF4C2300089D
:1002B00080B500AF034B93E80700FFF777FF00BF5F
:1002C00080BD00BF5823000880B500AFFFF784FF52
:1002D000FFF7A4FFFFF7B0FFFFF7BAFFFFF7C4FF78
:1002E000FFF7CEFFFFF7D8FFFFF7E2FF00BF80BDAB
:1002F00080B582B000AF0346FB71FB795B039BB214
:100300001946074800F092FEFB79DB435B039BB282
:100310001946034800F08CFE00BF0837BD4680BD7B
:10032000000C024080B500AF0C4B1B781A460C4BFA
:100330001B7802FA03F3DBB203F00F03DAB2094BC6
:100340001A70074B1B780133DAB2054B1A70054B54
:100350001B781846FFF7CCFF00BF80BD00000020CF
:10036000520600205306002080B500AF084B1B88C2
:1003700001339AB2064B1A80054B1B88B3F5FA7FFE
:1003800004D1034B00221A80FFF7CCFF00BF80BDD1
:100390005006002080B500AF054801F0FFFA0420A8
:1003A00001F014FB01F04CFB01F03AFB00BF80BDF3
:1003B0004090020080B500AFFFF7ECFF00BF80BDAA
:1003C00080B500AF012000F0E3FFFFF7ABFF00BFF7
:1003D00080BD80B500AF0021012000F0A5FF0449D9
:1003E000012000F0E1FF012000F0BCFF00BF80BD54
:1003F0000000024080B500AFFFF7EBFF062001F0E0
:1004000045FB00BF80BD80B582B000AFFFF75CFF49
:10041000054B1B781846FFF76BFFFFF7EBFF7B6878
:1004200001337B60FBE700BF5306002080B582B03C
:1004300000AF0346FB71FB795B039BB2194607488B
:1004400000F0F4FDFB79DB435B039BB219460348E4
:1004500000F0EEFD00BF0837BD4680BD000C024035
:1004600080B400AF00BFBD465DF8047B704780B527
:1004700084B000AF78600B46FB7040231E4A012118
:10048000786801F0C0F803461A461C4B1A60002336
:10049000FB601CE0184AFB6813441B78BB6000F04B
:1004A00049F90246BB68013313441B7803F0030388
:1004B000022B02D1BB68203B00E0BB68D9B20E4AD8
:1004C000FB6813440A461A70FB680133FB600B4B50
:1004D0001B68FA689A42DDDB084B1B689BB2064A30
:1004E0008221786801F089F803461A46034B1A60A6
:1004F00000BF1037BD4680BD740900206008002091
:1005000080B483B000AF78600B46FB7000BF0C373F
:10051000BD465DF8047B704780B584B000AFF860DD
:10052000B9607A603B60BB685B7803F00703DBB2BD
:100530001846FFF77BFF012318461037BD4680BDE4
:1005400080B584B002AF78600B467B801A4B602286
:100550004021786801F025F900230093402303220D
:100560008221786801F029F8144B0093402303227C
:100570000121786801F021F8002300934023032231
:100580008421786801F019F80023009340230322A6
:100590000321786801F011F8094B009340230222EF
:1005A0008521786801F009F80649786800F0F0FFC5
:1005B00000BF0837BD4680BD190500086F0400085C
:1005C000010500086104000880B582B000AF034651
:1005D000FB71FB79002B02D04FF4802301E04FF434
:1005E00000331946094800F04AFFFB79002B02D07E
:1005F0004FF4802301E04FF400331946034800F024
:1006000042FF00BF0837BD4680BD00BF2038024012
:1006100080B582B000AF0346FB71FB79002B01D09F
:10062000234B00E0234B184600F0BBFDFB79002B69
:1006300001D01F4B00E01F4B0C21184600F0A5FD18
:10064000FB79002B01D01A4B00E01A4B0021184611
:1006500000F095FDFB79002B01D0154B00E0154B08
:100660000021184600F085FDFB79002B01D0104BCE
:1006700000E0104B0821184600F072FDFB79002BBA
:1006800001D00B4B00E00B4B0021184600F083FD1E
:10069000FB79002B01D0064B00E0064B4FF4614183
:1006A000184600F045FD00BF0837BD4680BD00BFBD
:1006B000004800400044004080B500AF034800F00F
:1006C000C8FD2321014800F0BCFDF7E700440040CD
:1006D000B2B110B50B491046144600F075F808B9D0
:1006E000094810BD0849204600F06EF80028F7D0F0
:1006F0002046064900F068F80028F1D0002010BD1F
:100700000148704764250008602500086C25000832
:10071000044B054A1B685B6B002B08BF134693F81C
:100720002801704710020020A4000020D0F8EC003F
:10073000704700BF044B054A1B685B6B002B08BF6A
:100740001346D3F8EC00704710020020A4000020EC
:10075000024B0A4601461868FFF7BABF1002002094
:1007600030B4064C064D2468646B002C08BF2C4640
:10077000D4F8E440A44630BC604700BF100200201B
:10078000A400002082B049B15AB16BB113780B605C
:100790001278101C18BF012002B0704701A9002A6E
:1007A000F3D1104602B070476FF00100F4E700BFCC
:1007B0000000000000000000000000000000000039
:1007C000A2EB0300704700BF02780B78012A28BF14
:1007D0009A42F5D16DE9044540EA0104CDE902678A
:1007E0006FF0000C4FEA447212B380EA010414F077
:1007F000070F6AD100F0070420F0070004F003059A
:1008000021F007014FEAC505F0E8042314F0040FB6
:10081000F1E804670CFA05F462EA040266EA0406E9
:100820000AD063EA0403624667EA0407664603E007
:10083000F0E80423F1E8046782FA4CF582EA060442
:10084000A4FA8CF46CBB83FA4CF583EA0705A5FA8D
:100850008CF595B950E9022351E9026782FA4CF50B
:1008600082EA0604A4FA8CF483FA4CF583EA0705BD
:10087000A5FA8CF52543DBD09CB92DBAB5FA85F4E1
:1008800024F0070427FA04F1DDE9026723FA04F3F0
:1008900003F0FF0001F0FF01FDE80445A0EB0100BB
:1008A000704724BAB4FA84F424F0070426FA04F159
:1008B000DDE9026722FA04F202F0FF0001F0FF0115
:1008C000FDE80445A0EB0100704714F0030F3CD194
:1008D00010F0030428D150F8082B51F8083B82FA95
:1008E0004CF582EA0305A5FA8CF55DB950F8042CA5
:1008F00051F8043C82FA4CF582EA0305A5FA8CF51E
:10090000002DE8D02DBAB5FA85F424F0070423FAB7
:1009100004F122FA04F202F0FF0001F0FF01FDE809
:100920000445A0EB010070474FEAC40420F0030027
:1009300050F8082B21F0030151F8083B0CFA04F49D
:1009400062EA040263EA0403C9E710F003041AD060
:10095000A1EB040120F00300E40750F8042B06D0BB
:100960000FD28B785FFAA2F4E41A06D12BB1CB78C0
:100970005FFAB2F4E41A00D11BB920465DF8104BBF
:10098000704701F1040150F8042BCC0721F003015A
:1009900051F8043B48D824D222F07F4482FA4CF527
:1009A00094EA1325A5FA8CF50AD165B951F8043BF0
:1009B00084EA0204B4EB036F0ED150F8042BEBE78A
:1009C0004FEA132355E035F07F454DD10878FDE817
:1009D0000445C0F1000070474FEA126203F0FF03C4
:1009E00047E002EA1C4482FA4CF594EA1345A5FA62
:1009F0008CF50AD165B951F8043B84EA0204B4EBE2
:100A0000034F0CD150F8042BEBE74FEA134330E0CF
:100A100015EA1C4528D10B884FEA124229E04FEA1B
:100A2000124203EA1C4324E002F0FF0482FA4CF570
:100A300094EA1365A5FA8CF50AD165B951F8043B1F
:100A400084EA0204B4EB032F09D150F8042BEBE73E
:100A50004FEA13630DE015F0FF0F05D10B684FEA65
:100A6000122223F07F4304E04FF00000FDE804452C
:100A7000704712BA1BBA82FA4CF482EA0304A4FA51
:100A80008CF5B5FA85F402FA04F203FA04F34FEA9E
:100A90001260FDE80445A0EB1360704730B4064CCB
:100AA000064D2468646B002C08BF2C46D4F8E04047
:100AB000A44630BC604700BF10020020A400002004
:100AC00021B1FF2A04D80A700120704708467047F8
:100AD0008A2303604FF0FF30704700BF062828D8F4
:100AE000DFE800F0041D22090E131800114B1A68EC
:100AF00042F480121CE00F4B1A6842F4002217E007
:100B00000C4B1A6842F4802212E00A4B1A6842F435
:100B100000320DE0074B1A6842F4803208E0054BC2
:100B20001A6842F4800203E0024B1A6842F4001291
:100B30001A6070470C380240062828D8DFE800F019
:100B4000041D22090E131800114B1A6842F480523A
:100B50001CE00F4B1A6842F4006217E00C4B1A6855
:100B600042F4806212E00A4B1A6842F400720DE00F
:100B7000074B1A6842F4807208E0054B1A6842F489
:100B8000804203E0024B1A6842F400521A60704738
:100B90000C380240062828D8DFE800F0041D22099E
:100BA0000E131800114B1A6822F480521CE00F4BF0
:100BB0001A6822F4006217E00C4B1A6822F4806273
:100BC00012E00A4B1A6822F400720DE0074B1A6813
:100BD00022F4807208E0054B1A6822F4804203E098
:100BE000024B1A6822F400521A6070470C38024017
:100BF000062828D8DFE800F0041D22090E1318008B
:100C0000124B1868C0F300107047104B1868C0F3FF
:100C1000C00070470D4B1868C0F3800070470B4B45
:100C20001868C0F340007047084B186800F00100D6
:100C30007047064B1868C0F380107047034B186864
:100C4000C0F3401070470020704700BF0C380240CE
:100C5000024B1A6842F400021A6070470C380240D6
:100C6000024B1868C0F3C010704700BF0C38024038
:100C7000062822D8DFE800F004171C090E10150022
:100C80000F4B1868C0F3406070470D4B1868C0F3F5
:100C9000404070470A4B00E00A4B1868C0F3400020
:100CA0007047094BF9E7064B1868C0F3407070476E
:100CB000034B1868C0F3C06070470020704700BF46
:100CC00000380240703802407438024010B50446C3
:100CD0002046FFF7CDFF0028FAD010BD032809D029
:100CE00004280ED090B90A4B1B68C3F38103022B72
:100CF000F9D17047064B1B68C3F38103012BF9D16F
:100D00007047034B1B6813F00C0FFAD1704700BFFC
:100D100008380240062822D8DFE800F004171C0932
:100D20000E1012000E4B1A6842F0807216E00C4B47
:100D30001A6842F4803211E0094B02E0094B00E0EE
:100D4000094B1A6842F0010208E0054B1A6842F0AC
:100D5000805203E0024B1A6842F080621A607047CA
:100D6000003802407038024074380240062822D809
:100D7000DFE800F004171C090E1012000E4B1A6871
:100D800022F0807216E00C4B1A6822F4803211E0D7
:100D9000094B02E0094B00E0094B1A6822F00102FE
:100DA00008E0054B1A6822F0805203E0024B1A68F3
:100DB00022F080621A6070470038024070380240AA
:100DC00074380240024B1A6842F400221A607047DD
:100DD00000380240024B1A6822F400221A60704761
:100DE00000380240032802D0052805D07047054B83
:100DF0001A6842F4802203E0034B1A6842F00402AE
:100E00001A6070470038024070380240032802D050
:100E1000052805D07047054B1A6822F4802203E0AC
:100E2000034B1A6822F004021A607047003802402F
:100E30007038024003F007031B0702F00F0243EA79
:100E4000026201F0030142EA0142C0F30800024BD2
:100E500042EA80121A60704788380240074B1A68CD
:100E600022F07F4222F47C02090422F4604241EA2B
:100E7000002022F0FF0202431A6070478C380240C3
:100E8000034B1A6822F0030210431860704700BF3A
:100E900008380240034B1A6822F4800242EA80506C
:100EA0001860704704380240034B1A6822F460420D
:100EB00042EA40301860704708380240034B1A6815
:100EC00022F4E05242EA802018607047083802405D
:100ED000034B1A6822F0F00242EA001018607047D3
:100EE00008380240034B1A6822F4F81242EA004024
:100EF000186070470838024010B5029C00F03F00AF
:100F0000C1F3080103F00F0340EA8110520840EAE0
:100F10000360012C02F1FF3303F0030398BF0224A6
:100F200040EA034004F00704024B40EA04701860F2
:100F300010BD00BF0438024010B503F00F03029C3F
:100F40001B0643F4800300F03F005208012C43EAE3
:100F50000003C1F3080102F1FF3202F0030298BF5F
:100F6000022443EA811343EA024304F00704024ADD
:100F700043EA0473136010BD04380240024B186842
:100F8000C0F38100704700BF0838024037B50446FF
:100F90000420FFF7BFFE0420FFF798FE0020FFF7B4
:100FA0006FFF0320FFF7B6FE0320FFF78FFEE07B05
:100FB00000B1012000F0F2FD207BFFF789FF607B8C
:100FC000FFF77CFFA07BFFF76FFFA5796188207892
:100FD000227963790095FFF7AFFF104B1A6842F052
:100FE00080721A600020FFF771FEA06800F058F9C7
:100FF0000220FFF745FF0020FFF770FE084A236933
:101000001360084A63691360A269074B04201A60E1
:1010100003B0BDE83040FFF7A9BE00BF0038024072
:1010200040060020440600204806002081617047E9
:10103000090481617047006908407047436921EAEB
:1010400003020B4042EA034383617047006980B2A8
:1010500070474161704741F48033C361C161C3612E
:10106000C369C36970472DE9F0410668C56800246B
:1010700043FA04F7FF0711D567004FF0030C0CFA91
:1010800007FC6FEA0C0C01FA07F80CEA06060CEAFA
:10109000050502FA07F746EA08063D430134102C1D
:1010A000E6D10660C560BDE8F081012941680CBF4A
:1010B0001943994370B541608468002143FA01F5F2
:1010C000ED0707D54D000326AE4024EA060402FAD8
:1010D00005F52C4301311029F0D1846070BDF0B5C5
:1010E000056A446A002342FA03F6F70707D59E0013
:1010F0000F27B74025EA070501FA06F63543013305
:10110000082BF0D1002303F1080642FA06F6F60791
:1011100007D59E000F27B74024EA070401FA06F618
:1011200034430133082BEED105624462F0BD000068
:10113000084A094B10B520F4806494421B6804BF30
:10114000064B1B6801EB43034900B3FBF1F38360DB
:1011500010BD00BF001001404406002048060020DA
:10116000C36808290CBF23F4805343F48053C36041
:101170007047036923F44053194301617047C36802
:1011800023F4C0631943C1607047C36823F00C03A4
:101190001943C1607047436923F4407319434161A7
:1011A0007047C36843F40053C3607047C36823F4B7
:1011B0000053C360704738B504460D4600F049F847
:1011C00020462946BDE8384000F03BB810B504463B
:1011D00000F043F82046BDE8104000F036B84369FF
:1011E00043F0400343617047436923F04003436188
:1011F0007047436943F0800343617047436923F0BC
:10120000800343617047C36843F02003C3607047A5
:10121000C36823F02003C3607047C36843F08003B2
:10122000C3607047C36823F08003C360704743699D
:1012300043F0010343617047436923F001034361B5
:101240007047C1F30801416070474068C0F308006F
:10125000704703681B06FCD5704703689B06FCD5E6
:10126000704703680B420CBF0020012070470368E1
:10127000A1F11002702A03EA010305D8C2681A42DC
:101280000CBF002001207047082906D113B1436923
:10129000C3F3802303F00100704700207047000073
:1012A000034B1A6822F0070210431860704700BF12
:1012B000003C0240064B1A6842F000421A60054AA0
:1012C00043F80C2C02F1883243F80C2C704700BF15
:1012D000103C024023016745024B1A6842F000426D
:1012E0001A607047103C0240024B1A6842F04002FC
:1012F0001A6070470C3C0240024B1A6842F001022F
:101300001A6070470C3C0240024B1A6822F480328B
:101310001A6070470C3C0240024B1B68DB03FBD495
:10132000704700BF0C3C024001290BD002D30229B8
:101330000DD070470A4B1A6802431A605A6822EAB5
:1013400000000AE0064B1A6822EA000202E0044BA1
:101350001A6802431A605A6810435860704700BF09
:10136000083C0140034B1A6802431A605A68104354
:1013700058607047003C0140044B1A68C04302406B
:101380001A605A6810405860704700BF003C014026
:10139000014B1860704700BF143C0140014B1B68B3
:1013A00018407047143C0140F0B50022012303FAB5
:1013B00002F404424CD0284CA1422ED011D8A4F5FE
:1013C0004064A14223D004D8A4F58064A1422FD068
:1013D0001BE0224B99421CD003F5806399421AD03E
:1013E00013E01F4B99421ED008D8A3F50063994221
:1013F00015D003F58063994213D006E0194B99424A
:1014000013D003F58063994211D0002310E002232A
:101410000EE003230CE004230AE0052308E0062382
:1014200006E0072304E0082302E0092300E00A2382
:101430000D4C22F00306344402F00305AD0026688B
:101440000F27AB4007FA05F526EA05052B43236075
:101450000132102AAAD1F0BD00140240000C024053
:10146000002002400024024008380140036819436C
:1014700001607047036823EA010101607047036857
:10148000194301607047036823EA01010160704756
:10149000430903F1804303F50E3300F01F001A687F
:1014A000012101FA00F0104318607047430903F16D
:1014B000804303F50E3300F01F001A68012101FA82
:1014C00000F022EA000018607047430903F18043EE
:1014D00003F50E3300F01F001A68012101FA00F035
:1014E00002431A601A6822EA000018607047430934
:1014F00003F1804303F50E3300F01F001A68012149
:1015000001FA00F0104318607047430903F180436B
:1015100003F50E3300F01F001A68012101FA00F0F4
:1015200022EA000018607047034B1A6822F4C002D8
:1015300042EA405018607047083802402DE9F041F7
:101540000546006898460E4617468047069BC360CE
:10155000079B0361BDF8203083820A4B03670A4B67
:10156000C3660A4B83660023C0F8DC5080E8C001E4
:10157000C0F8C830C0F8CC30C0F8D030C0F8D43093
:10158000BDE8F081C917000823180008A918000851
:10159000C161704701627047416270478162704764
:1015A00008B5D0F8DC305B6A984708BD08B5D0F8BC
:1015B000DC309B6A03B1984708BD37B5069CD0F86C
:1015C000DC500094AC68A04703B030BD37B5036869
:1015D000002504468575C575DB79009529462A46A0
:1015E000FFF7EBFFD4F8DC3020465B6829469847CC
:1015F000E36903B1984703B030BD10B5D0F8DC40C3
:10160000E469A04710BD10B5D0F8DC40246AA047BB
:1016100010BD08B5D0F8DC301B69984708BD08B587
:10162000D0F8DC309B69984708BD08B5D0F8DC30AD
:101630005B69984708BD10B5002104460122FFF7F9
:10164000E8FF002384F82C3010BD38B50268838F82
:10165000C58ED279ED1A9542A8BF1546826BADB200
:101660001A4400212B460446FFF7CDFFA84205D0BF
:101670002046FFF7E0FF4FF0FF3038BDA38F034453
:10168000A38738BD38B50368826BDD79838F9D42AF
:1016900004464FF000010FD22B46FFF7AEFF0223A6
:1016A00084F82C302368A26BD9790A44A263DB79D1
:1016B000A28FD31AA38738BDFFF79FFF94F8443059
:1016C000002B0CBF0323022384F82C30002384F862
:1016D0004430A387A36338BD2DE9F34104460E4689
:1016E00000F14808002558F8057057B920463146E2
:1016F00004F1380204F13C0302B0BDE8F04100F00F
:10170000D1BC08EB0503317858791A7900EA010356
:101710009A4203D00835202DE5D1E7E704F14003D4
:1017200000932046314604F1380204F13C03B847E7
:101730000128EFD802B0BDE8F08138B503698363B2
:101740008B79CA7943EA0223838704460D46FFF763
:10175000C3FF08B3E988B1B1A38F22688B42D27965
:1017600009D24BB193FBF2F102FB1133D3F1010328
:1017700038BF002300E0002384F844302046BDE851
:101780003840FFF77FBF0B4620460A46FFF735FF7C
:10179000042384F82C3038BD2046BDE83840FFF7DC
:1017A0004ABF70B5002500EBC504A66C2EB101350B
:1017B000042DF8D14FF0FF3070BD84F84C1084F840
:1017C0004D20A364304670BD70B500F13006002591
:1017D00005642946324608230446FFF714FF08280B
:1017E00004D02046BDE87040FFF725BFE38E1BB153
:1017F00094F93020002A05DA20463146BDE87040D1
:10180000FFF79BBFA28A9A42EBD32269A2632268A8
:10181000A587D2799A4234BF0523062384F82C3059
:1018200070BD90F82C30062B10B5044610D0072B55
:1018300024D0052B33D1FFF708FF002833DBA38F1B
:10184000E28ED21A2368DB799A422CDC062310E060
:10185000FFF7FBFE002826DB204604F13001FFF7EE
:101860003BFF48B100210B4620460A46FFF7C5FE64
:10187000042384F82C3010BD204610E000210B46D4
:101880000A46FFF7C0FE002384F82C30236C1BB1FE
:10189000204604F1300198470023236410BDBDE8C1
:1018A0001040FFF7C8BE10BD90F82C30032B10B5C8
:1018B000044607D0042B07D0022B1CD1BDE81040F2
:1018C000FFF7E0BE072313E0036C13B100F1300112
:1018D000984794F8303053B994F83130052B06D13D
:1018E000D4F8DC30618E5B682046C9B2984700238B
:1018F00084F82C3010BDBDE81040FFF79CBEFEE719
:101900007047000000221A491A485318834204D233
:10191000194BD35853500432F5E7184A934203D277
:1019200000221A600433F8E7154B164C1A6842F48B
:1019300000721A605A6F42F470025A67124B9C424E
:1019400003D254F8043B9847F8E7104C104B9C42E4
:1019500003D254F8043B9847F8E7FEF754FD0D4CCA
:101960000D4B9C4203D254F8043B9847F8E700BF64
:10197000000000204C06002094280008B409002034
:1019800014ED00E09428000894280008942800082A
:10199000942800089428000894280008024B20F09E
:1019A0007F401860704700BF14E000E0024B1868E9
:1019B00020F07F40704700BF14E000E0024B186841
:1019C00020F07F40704700BF18E000E0044B1A6829
:1019D00000F0040022F0040202431A60704700BFC6
:1019E00010E000E00B4B10B5B1FBF0F49C420ED8B8
:1019F000094B9C4286BFE40800200420FFF7E6FF65
:101A0000013C064B24F07F441C60012010BD0020E7
:101A100010BD00BFF7FFFF07FEFFFF0014E000E06E
:101A2000024B1A6842F002021A60704710E000E0B0
:101A3000024B1A6822F002021A60704710E000E0C0
:101A4000024B1A6842F001021A60704710E000E091
:101A5000024B1A6822F001021A60704710E000E0A1
:101A6000024B1868C0F30040704700BF10E000E070
:101A7000014B00221A60704718E000E0024B186822
:101A800020F07F40704700BF1CE000E0054B42099A
:101A900003EB820300F01F00012202FA00F018603D
:101AA000704700BF00E100E0054B420903EB8203F1
:101AB00000F01F00012202FA00F01860704700BF1A
:101AC00080E100E0074B420903EB820300F01F00B6
:101AD0001B68012202FA00F003420CBF0020012023
:101AE000704700BF00E200E0054B420903EB8203B0
:101AF00000F01F00012202FA00F01860704700BFDA
:101B000000E200E0054B420903EB820300F01F00F6
:101B1000012202FA00F01860704700BF80E200E086
:101B2000074B420903EB820300F01F001B680122F0
:101B300002FA00F003420CBF00200120704700BFF2
:101B400000E100E05A2804D900F00F00044BC15412
:101B5000704700F1604000F564400170704700BFBD
:101B600014ED00E0074B420903EB820300F01F0075
:101B70001B68012202FA00F003420CBF0020012082
:101B8000704700BF00E300E0EF2803D8024B1A685B
:101B900010431860704700BF00EF00E020B9064B0B
:101BA0001A6842F4804205E0012804D1024B1A6809
:101BB00002F480421A60704700700040F8B54A880D
:101BC00004460E467AB10368587C0023834208D24B
:101BD00061680D2505FB03114979914205D0013358
:101BE000F4E70020F8BD4FF0FF330133DBB2E375BB
:101BF00043B9D4F8DC302046DB689847D4F8C830C5
:101C0000A3B924E06FF00C020D2111FB03236168DE
:101C1000CA18002311798B42EBD2D2F809101801AF
:101C2000415809B1002008700133F3E70023A36491
:101C30002365A3652366254604F11007D5F8C8304F
:101C400013B12046718898470435BD42F6D1012072
:101C5000F8BD19881268012984BF01211980C37D4C
:101C60002BB141680D2000FB031313F8083C1370DF
:101C70000120704770B5C47D40686FF00C050D26DB
:101C800016FB045420448D880479A5420CD201240B
:101C90001C808988D0F8093012680901CB5803B13B
:101CA0001B781370012070BD002070BD19880229B7
:101CB00084BF02211980116800230B701268012073
:101CC000537070471988022984BF02211980116856
:101CD00000230B70126801205370704738B514460A
:101CE0001A882568022A84BF02221A808988C9B20C
:101CF000FFF795FC003018BF0120287023680022F0
:101D00005A70012038BD08B589880122C9B2FFF791
:101D100080FC012008BD08B589880022C9B2FFF700
:101D200078FC012008BD10B50A7872B94C887F2C68
:101D30000BD8D0F8DC30847593F830201AB149887C
:101D40005B68C9B29847012010BD002010BD70B576
:101D50001E46C37D0A460D246FF00C0114FB0313CD
:101D600041680B4491881C798C4216D9D3F80950EC
:101D7000548809016B181B79A3420ED9695809B11F
:101D80000C7000E04CB9D0F8D84014B1918852885A
:101D9000A04700233380012070BD002070BD2DE9D5
:101DA000F04F05464888C7B2000A022889B0164697
:101DB000984611D0032800F0E180012840F01E81F0
:101DC0002B6813602B68B8F800201B789A4238BF44
:101DD0001346A8F8003012E12B69136002930D231B
:101DE000D5F80490B8F8004002985F4309EB070368
:101DF00019F807600393B44238BF264619463246A5
:101E000000F06AF9029D19F80770A41B3544A4B2CA
:101E100000230593039B05981A7983B29A4240F2F6
:101E2000A8801B0103980793D0F8093007990B4449
:101E3000D3F80890B9F1000F13D099F800A05445D9
:101E400038BFA24628464946524600F045F999F85F
:101E50000030CAEB040456441F445544A4B2B6B241
:101E6000BFB200230493039B0498D3F80920079B77
:101E70001A4483B21179994278D94FF0150B0BFBB4
:101E800003FBD36813F80BA0009303EB0B09544535
:101E900038BFA24628464946524600F01DF9009B2D
:101EA000D9F80D1013F80B30CAEB040456441F4444
:101EB0005544A4B2B6B2BFB2A1B1D9F811A05445ED
:101EC000B8BFA2461FFA8AFA2846524600F004F923
:101ED000D9F81130CAEB040456441F445544A4B247
:101EE000B6B2BFB200230693069899F8042083B2D5
:101EF0009A4238D9D9F809C0C3EB03130CEB030A93
:101F00001CF803B05C4538BFA346284651465A46E4
:101F10008DE8081000F0E0F89DE808101CF8033088
:101F2000DAF80710CBEB04045E441F445D44A4B20E
:101F3000B6B2BFB2A1B1DAF80BB05C45B8BFA346E8
:101F40001FFA8BFB28465A4600F0C6F8DAF80B3029
:101F5000CBEB04045E441F445D44A4B2B6B2BFB2EE
:101F6000069B0133BFE7049B01337BE7059B0133ED
:101F70004FE7029B5F80A8F800603DE02C6967B9DD
:101F80000923A3700423E3702370B8F80030042BF6
:101F900028BF0423A8F800302BE0A868013F70B3E5
:101FA000EB689F422ADA8A8840F209439A4225D197
:101FB00050F8270000F044F901304300DBB22370F1
:101FC000B8F80020934228BF1346A8F800304FEA23
:101FD00087090023B8F800205208013A934208DA32
:101FE000AA6852F80920D15C04EB43020133518006
:101FF000F0E7032363703460012000E0002009B0A3
:10200000BDE8F08F002300EB8302D2F8C8202AB18C
:102010000133042BF7D14FF0FF307047323340F8D3
:10202000231010467047C0F8D810704738B54C7868
:10203000092C05D8044D55F824401CB1A04738BDE3
:10204000002038BD204638BD3C28000838B54C7803
:102050000B2C05D8044D55F824401CB1A04738BDC1
:10206000002038BD204638BD6428000810B54C78E3
:10207000012C03D009D3032C03D004E04C8834B1E5
:1020800001E04C882CB1002010BD034C02E0034C51
:1020900000E0034CA04710BDDD1C0008171D000820
:1020A000071D000810B50C7814F0600F12D104F071
:1020B0001F04012C0AD005D3022C0BD1BDE810401F
:1020C000FFF7D4BFBDE81040FFF7B0BFBDE8104038
:1020D000FFF7BCBF002010BD844641EA000313F0A7
:1020E00003036DD1403A41D351F8043B40F8043B1F
:1020F00051F8043B40F8043B51F8043B40F8043BE2
:1021000051F8043B40F8043B51F8043B40F8043BD1
:1021100051F8043B40F8043B51F8043B40F8043BC1
:1021200051F8043B40F8043B51F8043B40F8043BB1
:1021300051F8043B40F8043B51F8043B40F8043BA1
:1021400051F8043B40F8043B51F8043B40F8043B91
:1021500051F8043B40F8043B51F8043B40F8043B81
:1021600051F8043B40F8043B403ABDD2303211D321
:1021700051F8043B40F8043B51F8043B40F8043B61
:1021800051F8043B40F8043B51F8043B40F8043B51
:10219000103AEDD20C3205D351F8043B40F8043B21
:1021A000043AF9D2043208D0D2071CBF11F8013B1F
:1021B00000F8013B01D30B8803806046704700BFE5
:1021C000082A13D38B078DD010F003038AD0C3F1F4
:1021D0000403D21ADB071CBF11F8013B00F8013BD6
:1021E00080D331F8023B20F8023B7BE7043AD9D395
:1021F000013A11F8013B00F8013BF9D20B7803706A
:102200004B7843708B788370604670470000000005
:1022100000000000000000000000000000000000BE
:1022200000000000000000000000000000000000AE
:10223000000000000000000000000000000000009E
:1022400090F800F06DE9024520F007016FF0000CF6
:1022500010F0070491F820F040F049804FF000049E
:102260006FF00700D1E9002391F840F000F1080079
:1022700082FA4CF2A4FA8CF283FA4CF3A2FA8CF3B1
:102280004BBBD1E9022382FA4CF200F10800A4FA18
:102290008CF283FA4CF3A2FA8CF3E3B9D1E904236C
:1022A00082FA4CF200F10800A4FA8CF283FA4CF3A3
:1022B000A2FA8CF37BB9D1E9062301F1200182FA5D
:1022C0004CF200F10800A4FA8CF283FA4CF3A2FA63
:1022D0008CF3002BC6D0002A04BF04301A4612BA71
:1022E000B2FA82F2FDE8024500EBD2007047D1E974
:1022F000002304F00305C4F100004FEAC50514F003
:10230000040F91F840F00CFA05F562EA05021CBFD3
:1023100063EA050362464FF00004A9E700000240AB
:10232000010000000F00000000000240E000000576
:102330000000000000100240080001000F00000033
:1023400000100240030000000F00000000080240DF
:10235000080000000F00000000040240000401001B
:10236000010000000904010102FF000004602400D4
:102370000800000000000000000000000904020244
:1023800000FF000005000000000000000000000049
:10239000000000000904030302FF0000068024007F
:1023A0000800000000000000000000000904040410
:1023B00000FF000007000000000000000000000017
:1023C000000000000904050501FF000008DC2300EF
:1023D0000800000000000000000000000705850262
:1023E0004000010000000000000000001201000297
:1023F0000000004039F539F5000201020301000038
:1024000009020000050100803210240008000000CD
:10241000000000000100000000000000642300082C
:102420000000000001000000000000007C23000804
:1024300000000000010000000000000094230008DC
:10244000000000000100000000000000AC230008B4
:10245000000000000100000000000000C42300088C
:10246000070501034000080000000000000000070D
:102470000582034000100000000000000000000082
:1024800007050303400008000000000000000007EB
:102490000584034000100000000000000000000060
:1024A0004C494720285068696C69707065205761F5
:1024B000696C6C652026204F6C69766965722072A4
:1024C000696368617264290043757272656E742075
:1024D0006D6F6E69746F7220646973636F76657275
:1024E00079463430372075736246532C20747479E2
:1024F0002C20706F7765722C207265736574206371
:102500006F6E74726F6C00005031335F424F5454E1
:102510004F4D5F5454595F30000000005031335F1D
:10252000424F54544F4D5F46454154555245535FB9
:10253000300000005032345F544F505F5454595FA4
:10254000310000005032345F544F505F46454154D3
:10255000555245535F31000053414D504C45530097
:1025600043000000504F5349580000000000000095
:102570002E000000002020202020202020202828BD
:102580002828282020202020202020202020202033
:102590002020202020881010101010101010101073
:1025A00010101010100404040404040404040410A3
:1025B0001010101010104141414141410101010131
:1025C00001010101010101010101010101010101FB
:1025D0001010101010104242424242420202020207
:1025E00002020202020202020202020202020202CB
:1025F000101010102000000000000000000000007B
:1026000000000000000000000000000000000000CA
:1026100000000000000000000000000000000000BA
:1026200000000000000000000000000000000000AA
:10263000000000000000000000000000000000009A
:10264000000000000000000000000000000000008A
:10265000000000000000000000000000000000007A
:10266000000000000000000000000000000000006A
:1026700000000000000000001802002010006000B0
:10268000020200000306000000050401006CDC02E9
:10269000001BB70000366E01100050010407000057
:1026A000020600000004000000BD010580DE80027B
:1026B00000BD01051000F000020500000306000047
:1026C00000050401000E270780C3C901008793039A
:1026D000100050010207000005060000000504007C
:1026E000007A030A80DE800200BD01050C00600054
:1026F000020200000306000000050401006CDC0279
:10270000001BB70000366E010C00500104070000EA
:10271000020600000004000000BD010580DE80020A
:1027200000BD01050C00F0000205000003060000DA
:1027300000050401000E270780C3C9010087930329
:102740000C0050010207000005060000000504000F
:10275000007A030A80DE800200BD010519006000D6
:10276000020200000306000000050401006CDC0208
:10277000001BB70000366E0119005001040700006D
:10278000020600000004000000BD010580DE80029A
:1027900000BD01051900F00002050000030600005D
:1027A00000050401000E270780C3C90100879303B9
:1027B0001900500102070000050600000005040092
:1027C000007A030A80DE800200BD01050800600077
:1027D000020200000306000000050401006CDC0298
:1027E000001BB70000366E0108005001040700000E
:1027F000020600000004000000BD010580DE80022A
:1028000000BD01050800F0000205000003060000FD
:1028100000050401000E270780C3C9010087930348
:102820000800500102070000050600000005040032
:10283000007A030A80DE800200BD0105AD1C00089D
:102840000000000000000000000000000000000088
:10285000271D00089F1D000800000000531C0008F1
:10286000BD1B0008C51C000800000000000000009F
:102870000000000000000000000000000000000058
:10288000000000000000000000000000751C0008AF
:042890004F1D0008D0
:10289400010000004C49472063757272656E742014
:1028A4006D6F6E69746F722072656C6561736520FB
:1028B400302E302400000000000000000000000062
:1028C4000000000000000000000000000000000004
:1028D40000000000000000000000000000000000F4
:1028E40000000000000000000000000000000000E4
:1028F40000000000000000000000000000000000D4
:1029040000000000000000000000000000000000C3
:1029140000000000A0240008C824000804000020CF
:10292400082500081C250008342500084425000853
:1029340058250008430000000000000000000000CB
:102944000000000000000000000000000000000083
:102954000000000043000000000000000000000030
:102964000000000000000000000000000000000063
:102974000000000043000000000000000000000010
:102984000000000000000000000000000000000043
:1029940000000000430000000000000000000000F0
:1029A4000000000000000000000000000000000023
:1029B40000000000430000000000000000000000D0
:1029C4000000000000000000000000000000000003
:1029D40000000000430000000000000000000000B0
:1029E40000000000000000000000000000000000E3
:1029F4000000000043000000000000000000000090
:102A040000000000000000000000000000000000C2
:102A140000000000C10A000885070008000000004B
:102A240074250008702500086C2500086C25000832
:102A34006C2500086C2500086C2500086C2500082E
:102A44006C2500086C2500086C250008FFFFFFFFBB
:102A5400FFFFFFFFFFFFFFFFFFFF000001004153E7
:102A6400434949000000000000000000000000008D
:102A740000000000000000000000000000004153BE
:102A8400434949000000000000000000000000006D
:102A94000000000000000000000000000000000032
:102AA40018020020000000000000000004050020BF
:102AB4006C050020D4050020000000000000000088
:102AC4000000000000000000000000000000000002
:102AD40000000000000000000000000000000000F2
:102AE40000000000000000000000000000000000E2
:102AF40000000000000000000000000000000000D2
:102B040000000000000000000000000000000000C1
:102B140000000000000000000000000000000000B1
:102B240000000000000000000000000000000000A1
:102B34000000000000000000000000000000000091
:102B44000000000000000000000000000000000081
:102B540001000000000000000E33CDAB34126DE61E
:102B6400ECDE05000B000000000000000000000087
:102B74000000000000000000000000000000000051
:102B84000000000000000000000000000000000041
:102B94000000000000000000000000000000000031
:102BA4000000000000000000000000000000000021
:0400000508001905D1
:00000001FF
